S00F00004A4C525F4C45442E73726563F9
S1130000FDC000001FC100001DC100001BC1000095
S113001019C1000017C1000015C1000013C1000080
S113002011C100000FC10000ACC200006DC100008E
S113003009C1000007C1000005C1000003C10000A0
S113004001C10000FFC00000FDC00000FBC00000B3
S1130050F9C00000F7C00000F5C00000F3C00000C4
S1130060F1C00000EFC00000EDC00000EBC00000D4
S1130070E9C00000E7C00000E5C00000E3C00000E4
S1130080E1C00000DFC00000DDC00000DBC00000F4
S1130090D9C00000D7C00000D5C00000D3C0000004
S11300A0D1C00000CFC00000CDC00000CBC0000014
S11300B0C9C00000C7C00000C5C00000C3C0000024
S11300C0C1C00000BFC00000BDC00000BBC0000034
S11300D0B9C00000B7C00000B5C00000B3C0000044
S11300E0B1C00000AFC00000ADC00000ABC0000054
S11300F0A9C00000A7C00000A5C00000A3C0000064
S1130100A1C000009FC000009DC000009BC0000073
S113011099C0000097C0000095C0000093C0000083
S113012091C000008FC000008DC000008BC0000093
S113013089C0000087C0000085C0000083C00000A3
S113014081C000007FC000007DC000007BC00000B3
S113015079C0000077C0000075C0000073C00000C3
S113016071C000006FC000006DC000006BC00000D3
S113017069C0000067C0000065C0000063C00000E3
S113018061C000005FC000005DC000005BC00000F3
S113019059C0000057C0000055C0000053C0000003
S11301A051C000004FC000004DC000004BC0000013
S11301B049C0000047C0000045C0000043C0000023
S11301C041C000003FC000003DC000003BC0000033
S11301D039C0000037C0000035C0000033C0000043
S11301E031C000002FC000002DC000002BC0000053
S11301F029C0000027C0000025C0000011241FBE34
S1130200CFEFCDBFDFE3DEBF00E00CBF18BE19BEE9
S11302101ABE1BBE10E2A0E0B0E2E2ECF9E000E09E
S11302200BBF02C007900D92A630B107D9F71BBED1
S113023020E2A6E0B0E201C01D92A831B207E1F7C6
S113024072D3BDC3DDCE0F931F93E0E0F4E0818150
S113025080FDFDCF2FB7F89440910C2050910D20D4
S1130260E0E0F4E080859185009729F4338130FF44
S113027002C04F5F5F4F2FBF60E070E0BA015527A7
S11302804427A0E0B0E08A019B01082B192B2A2BFC
S11302903B2BC901B8011F910F910895E0E0F4E0F0
S11302A021E0228364877587609310207093112066
S11302B080930E2090930F20818180FDFDCFE0E09C
S11302C0F4E082E0838385E08283089580931220A2
S11302D090931320089564E080E026D2E0E0F4E0F7
S11302E08FEF9FEF82879387108611868FB7F894DC
S11302F0E9E0F0E290819F5F90838FBFE0E0F4E05B
S113030081E08283808308951F920F920FB60F922B
S1130310112408B60F9218BE09B60F9219BE0BB677
S11303200F921BBECF92DF92EF92FF920F931F9317
S11303302F933F934F935F936F937F938F939F93E9
S1130340AF93BF93EF93FF9340910C2050910D20F6
S113035080910E2090910F2048175907F0F181E009
S1130360E0E0F4E08283E0911220F09113203097D2
S1130370A1F1A0E0B4E018968D919C91199760E0EA
S113038070E0BA0155274427A0E0B0E08A019B0140
S1130390082B192B2A2B3B2BC901B80100910E20E5
S11303A010910F2020E030E0980111270027C09021
S11303B01020D0901120E12CF12C0C291D292E297C
S11303C03F29061717072807390730F0C901B80174
S11303D06F5F7F4F8F4F9F4F1995FF91EF91BF91A3
S11303E0AF919F918F917F916F915F914F913F91C9
S11303F02F911F910F91FF90EF90DF90CF900F906E
S11304000BBE0F9009BE0F9008BE0F900FBE0F9049
S11304101F901895CF93DF9343E050E060E880E4A9
S113042096E08ED1C0E4D6E080E88E8343E050E0CD
S113043060E280E496E084D180E28E8343E050E081
S113044062E080E496E07CD182E08E8343E050E079
S113045061E080E496E074D181E08D83DF91CF91F7
S1130460089587E0E0EAF0E082833DD1109206200F
S113047010920720109208201092092010920A204E
S113048081E080930B2027DF78941092162010923D
S11304901720109214201092152083EB92E016DF9F
S11304A0D2DE70588F4F9F4FF9CE0895CF93DF93CC
S11304B0EC0168817981FB01DB0109C04081518134
S11304C02D913C9111974217530708F4DF010680E0
S11304D0F781E02D309791F71496ED91FC911597E3
S11304E0309799F01696CD91DC911797209769F083
S11304F0EC83FD831496ED91FC91159716968D91DE
S11305009C9117978683978317C0A617B70761F442
S11305101696ED91FC911797309771F0EC01E883F2
S1130520F9831482158208C016968D919C911797B1
S1130530892B11F416821782CD01DF91CF91089592
S1130540CF93DF9384E190E2B1DFEC01009741F0B7
S11305508A819B81BBDE6881798180E090E09EDEA8
S1130560DF91CF910895E0ECF7E0808583FD03C02F
S113057088E0858304C088E0E0ECF7E08683E0CF80
S113058008951F920F920FB60F92112408B60F927E
S113059018BE0BB60F921BBE8F939F93EF93FF93DE
S11305A0E0ECF7E0808583FD03C088E0858304C028
S11305B088E0E0ECF7E08683ECE0F0E28081918172
S11305C00196808391838091162090911720019643
S11305D08093162090931720FF91EF919F918F9114
S11305E00F900BBE0F9008BE0F900FBE0F901F9080
S11305F018950F931F93CF93DF931F92CDB7DEB758
S1130600082F11E01983BE016F5F7F4F80E090E0F7
S11306100AD1E0E0F6E0168303B9BE016F5F7F4FB5
S113062080E090E016D10F90DF91CF911F910F9150
S11306300895CF92DF92EF92FF920F931F93CF937F
S1130640DF931F92CDB7DEB784E0E0E0F6E0868367
S1130650858381E0898380E090E09AD0C12CD12CFD
S1130660760100E01BE127EB30E040E0BE016F5F64
S11306707F4F80E090E0B8D0069A88EABADF8FE135
S1130680B8DF83EDB6DF80E0B4DF80E4B2DF81EA77
S1130690B0DF88ECAEDF8AEDACDF82E0AADF81E870
S11306A0A8DF8FE8A6DF84EAA4DF86EAA2DF85ED6F
S11306B0A0DF80E89EDF8DE89CDF84E19ADF8BED8C
S11306C098DF80E496DF89ED94DF81EF92DF8FEA93
S11306D090DF0F90DF91CF911F910F91FF90EF90DA
S11306E0DF90CF9008958FEF809370008093710016
S11306F080937200809373008093740080937500DC
S11307008093760082E0E0E5F0E082838FB7F8948E
S11307109081986090838FBF818183FFFDCF8BE0B0
S1130720E0E4F0E0838308959FB7F894E82FF0E0C5
S1130730E059FF4F60958081682360839FBF0895CF
S1130740CF93DF93FC01709620E030E0C62FD0E019
S1130750DE01022E02C0B595A7950A94E2F7A0FD2A
S113076050832F5F3F4F31962830310589F740FF82
S11307700AC041FF03C0FC01658302C0FC0166831B
S1130780FC01618302C0FC016283DF91CF91089573
S11307900F931F93CF93DF93EC018C01C03C88E04F
S11307A0D80721F468E083E0BFDF10C0C03C89E0D3
S11307B0D80721F468E084E0B7DF0EC0C03C8AE0CB
S11307C0D80721F468E085E0AFDF06C0003C1B4099
S11307D019F468E086E0A8DF888180618883DF916E
S11307E0CF911F910F910895FF920F931F93CF9371
S11307F0DF93EC01F42EB901A80100E814E82EE11E
S113080030E04AD088234CF088819F2D990F990FAE
S11308109C70837FF92EF82AF882DF91CF911F9183
S11308200F91FF900895FB018081E82FE695E695EE
S1130830E69540E2E49FF0011124FA5F877021E01D
S113084030E0A90102C0440F551F8A95E2F74683A0
S11308500895FB018081E82FE695E695E69540E250
S1130860E49FF0011124FA5F877021E030E0A901D0
S113087002C0440F551F8A95E2F74583089543E06B
S113088050E068E080EC97E05BDF40E058E164E032
S113089080EC97E055CF0895CF92DF92EF92FF92CC
S11308A00F931F93CF93DF93EC016A017B01DB016C
S11308B0CA010197A109B109BC01CD01600F711FE3
S11308C0821F931FA701960158D021383105410595
S11308D05105F8F4213460F4213260F4213160F4DC
S11308E0293060F4253060F4233060F090E00BC0D0
S11308F093E009C092E007C092E805C091E003C00C
S113090091E801C090E888818C77892B888381E005
S113091001C08FEFDF91CF911F910F91FF90EF9066
S1130920DF90CF900895ABDF84DE74DD9ADDC6E0FE
S1130930D0E287E090E2A8E4B0E0F89428812111A5
S113094007C0FC012F5F31913323E1F3211102C071
S11309507894F3CF3C91E22FF0E0E150F04E232F56
S1130960217F3081232B2C932C9121602C9378941C
S113097088952C912E7F2C93E0CFA1E21A2EAA1BEE
S1130980BB1BFD010DC0AA1FBB1FEE1FFF1FA2173B
S1130990B307E407F50720F0A21BB30BE40BF50B38
S11309A0661F771F881F991F1A9469F760957095C1
S11309B0809590959B01AC01BD01CF010895F894F9
S10509C0FFCF63
S10909C2000E060C040007
S9030000FC
