S00F00004A4C525F4C45442E73726563F9
S113000004C1000028C1000026C1000024C1000072
S113001022C1000020C100001EC100001CC100005C
S11300201AC1000018C100000C9479120C94A71294
S113003012C1000010C100000EC100000CC100007C
S11300400AC1000008C1000006C1000004C100008C
S113005002C1000000C10000FEC00000FCC000009E
S1130060FAC00000F8C00000F6C00000F4C00000B0
S1130070F2C00000F0C00000EEC00000ECC00000C0
S1130080EAC00000E8C00000E6C00000E4C00000D0
S1130090E2C00000E0C00000DEC00000DCC00000E0
S11300A0DAC00000D8C00000D6C00000D4C00000F0
S11300B0D2C00000D0C00000CEC00000CCC0000000
S11300C0CAC00000C8C00000C6C00000C4C0000010
S11300D0C2C00000C0C00000BEC00000BCC0000020
S11300E0BAC00000B8C000000C943B100C948A10F5
S11300F0B2C00000B0C00000AEC00000ACC0000040
S1130100AAC00000A8C00000A6C00000A4C000004F
S1130110A2C00000A0C000009EC000009CC000005F
S11301209AC0000098C0000096C0000094C000006F
S113013092C0000090C000008EC000008CC000007F
S11301408AC0000088C0000086C0000084C000008F
S113015082C0000080C000007EC000007CC000009F
S11301607AC0000078C0000076C0000074C00000AF
S113017072C0000070C000006EC000006CC00000BF
S11301806AC0000068C0000066C0000064C00000CF
S113019062C0000060C000005EC000005CC00000DF
S11301A05AC0000058C0000056C0000054C00000EF
S11301B052C0000050C000004EC000004CC00000FF
S11301C04AC0000048C0000046C0000044C000000F
S11301D042C0000040C000003EC000003CC000001F
S11301E03AC0000038C0000036C0000034C000002F
S11301F032C000000C94EB0D0C94B30EFC09EA0918
S1130200ED09F009F309F609F90911241FBECFEF2E
S1130210CDBFDFE3DEBF00E00CBF18BE19BE1ABEBF
S11302201BBE10E2A0E0B0E2ECE2FFE200E00BBF94
S113023002C007900D92A23CB107D9F71BBE27E27A
S1130240A2ECB0E201C01D92AA36B207E1F70E9407
S1130250B7150C949417D4CE08950895089508956D
S113026008950895089508950895089508950097A8
S113027029F488E0E0ECF7E086830895883E934013
S113028021F488E0E0ECF7E0858308958091D82597
S113029081508093D825089580E0089580E00895E2
S11302A068EE75E280E00C94B10F08951092D825A1
S11302B01092E4251092E52581EA8093DA2580E204
S11302C08093DB251092DC251092DD251092DE252B
S11302D01092DF2582E090E08093E0259093E12561
S11302E01092E2251092E32580E092ECA1E0B0E0C8
S11302F08093E8259093E925A093EA25B093EB2514
S11303001092EC251092ED2588E08093EE2568EE9E
S113031075E280E00E94B10F80E00E9416168823E7
S113032029F09091D8259F5F9093D8250895FF9246
S11303300F931F93CF93DF938091C52081119BC0AE
S11303400E942D0C882351F0C091C620D091C72063
S11303500E943A0CC817D90759F48DC0C091C62021
S1130360D091C7200E94350CC817D90709F483C05F
S1130370DFB7F894C091C820EC2FF0E0EE0FFF1F18
S1130380E753FF4D80819181892B09F58091C2202B
S11303909091C32001968093C2209093C3200E9421
S11303A02D0C811107C08091C2209091C320843606
S11303B0910558F00E942D0C882349F08091C220A9
S11303C09091C3208032934010F4DFBF54C0109248
S11303D0C2201092C3208091C420811106C081E004
S11303E0C11180E08093C82004C081E0C11180E085
S11303F0C82F81E08093C520DFBFD0E0FE01EE0F5F
S1130400FF1FE753FF4DFF24F394808191818034D3
S1130410914009F4F12CFF2091F00E942D0C8823C7
S113042039F00E943A0C8093C6209093C7200BC0E9
S11304300E94350C8093C6209093C72004C010926C
S1130440C6201092C720FE01EE0FFF1FE753FF4D99
S11304502081318180E491E0C89FA001C99F500DA3
S1130460D89F500D112442535F4D01E412E06F2DCB
S113047081E80E94EC0CDF91CF911F910F91FF90C6
S11304800895811115C02091C82081E090E02223B5
S113049011F080E090E0FC01EE0FFF1FE753FF4DE9
S11304A0108211821092C4201092C52080E03FCFA8
S11304B0089580E03CCF08950F931F93862F909169
S11304C0E62591111EC04091E4255091E525209127
S11304D0E2253091E3254217530799F02091E42552
S11304E03091E5252093E2253093E32504EA12E0D8
S11304F02AE030E04AED55E260E00E94EC0C809383
S1130500E6251F910F9108952FB7F894662359F0AB
S11305108091E4259091E525482B592B4093E425BF
S11305205093E5250CC08091E4259091E5254095F4
S11305305095482359234093E4255093E5252FBF34
S113054062E880E0B9CF08951092E6258091E42511
S11305509091E52583788093E4259093E525E2EE58
S1130560F5E280819181837880839183642F80E098
S1130570A3CF08958091D72581508093D72580916A
S1130580D7250E941C161092D625089580915027D5
S11305908823ECF48076803209F045C0809151279D
S11305A0813209F042C080915627909157270797CE
S11305B0F1F588EE95E2809358279093592787E0C8
S11305C090E080935A2790935B2781E0089580768A
S11305D0803279F580915127803219F08232D9F036
S11305E02AC08091562790915727079731F580E5C7
S11305F091E080935C2790935D2788EE95E2809349
S113060058279093592787E090E080935A27909336
S11306105B2781E0089560915227617080E00E9419
S1130620201681E0089580E0089580E0089580E038
S1130630089580E0089580E0089580E0089540E101
S113064050E061E080E060CF089540E450E061E074
S113065080E05ACF08954FB7F89420914F233091FA
S11306605023E0915123F0E0EE0FFF1FEE5AFC4DB2
S113067080819181821B930B4FBF0895ECDF21E0B1
S1130680892B09F420E0822F08950F931F93CF93B1
S1130690DF934FB7F8945091512380914E238111E9
S11306A010C020914F2330915023C52FD0E0FE017C
S11306B0EE0FFF1FEE5AFC4D8081918128173907F8
S11306C018F44FBF80E027C010924F23109250239C
S11306D081E0511180E08093512381E080934E2387
S11306E04FBF80E0CBDF882319F080E00E943310F5
S11306F080E491E0C89FA001C99F500DD89F500D80
S113070011244A5A5C4D02EC13E020E431E061E02C
S113071082E00E94EC0CDF91CF911F910F9108951C
S11307201092D7251092C5201092C4201092C82090
S11307301092C9201092CA201092CB201092CC2083
S11307401092C6201092C72080E0F1DD10924E2353
S113075010925123109252231092532310924F233C
S11307601092502380E091DF882359F09091D7258F
S11307709F5F9093D7259091D725913011F4909352
S1130780D62508950F931F93942F811127C080912C
S11307905123E1E08111E0E061157105A1F4F0E07D
S11307A020E431E0E29FB001E39F700DF29F700DF1
S11307B01124AB014A5A5C4D02EC13E061E0892F2D
S11307C00E94EC0C0BC0F0E0EE0FFF1FEE5AFC4D44
S11307D06083718310924E2380E057DF1F910F9145
S11307E0089580E04BCF0895FF920F931F93CF930A
S11307F0DF93FF24F3948091EE25893009F0F12CE6
S113080060E070E0C0E4D1E03FB7F89480914F23FA
S113081090915023209151233FBF30E0F901EE0F16
S1130820FF1FEE5AFC4D408151818417950730F02B
S11308308091D6258111E8CF90E01DC02C9FF00156
S11308402D9FF00D3C9FF00D1124E80FF91FEA5A7B
S1130850FC4D20818B01022B019680934F239093B2
S1130860502380E012DFFF2021F0702F6627F12C47
S1130870CBCF802F912FDF91CF911F910F91FF90BC
S1130880089580E0B1CF08959FB7F8948091C8206F
S1130890E82FF0E0EE0FFF1FE753FF4D2081318179
S11308A0203441E0340789F44091C52041110DC042
S11308B04091C420411109C021E02093C42081113A
S11308C020E02093C82020E030E09FBF80E491E046
S11308D0821B930B0895D8DF21E0892B09F420E0D3
S11308E0822F089580E0F7CF0895FF920F931F930E
S11308F0CF93DF93F62E172F01E08091EE258930F8
S113090009F000E0C0E4D1E080E0E5DF811107C038
S11309108091D6258111F8CF80E090E028C06FB790
S1130920F8942091C82030E0F901EE0FFF1FE7533F
S1130930FF4D80819181AC014F5F5F4F40835183B4
S11309402C9FF0012D9FF00D3C9FF00D11248E0F74
S11309509F1FFC01E253FF4DF0826FBF002329F07B
S1130960F12E110F110B00E0CFCF81E090E0DF9169
S1130970CF911F910F91FF900895BC0180E0B5CFF6
S11309800895E091F425F091F5250190F081E02D92
S1130990228133812E0F3F1FFC014081E40FF11DA2
S11309A0E217F307A0F481818430A1F0861306C016
S11309B014C081818430A1F08617A9F08081E80FEA
S11309C0F11DE217F307A8F380E090E0089580E0BA
S11309D090E0089580E090E008958E2F9F2F089571
S11309E080E090E008958E2F9F2F089580915227E4
S11309F08F7735C708959091F625992381F1E09179
S1130A00F425F091F5250190F081E02D948189176A
S1130A1040F5E093F225F093F325228133812E0FE4
S1130A203F1FE217F307F8F49181943061F4928147
S1130A30981309C09381961306C0E093F225F093AE
S1130A40F32581E008959081E90FF11DE217F30782
S1130A5058F3E093F225F093F32580E0089580E0C5
S1130A60089580E0089580E00895FF920F931F9306
S1130A70CF93DF93C82F60E0BEDFF82E882381F187
S1130A80A091F425B091F525EC2FF0E0EE0FFF1FB7
S1130A9012962D913C911397E20FF31F008111815F
S1130AA0D8011696ED91FC9117971995682F8C2F04
S1130AB0A2DFF82E8823A1F0C091F225D091F3256E
S1130AC065E0CE015EDFEC01009721F08A810E948F
S1130AD0AD0DF6CFD8011296ED91FC9113971995AF
S1130AE08F2DDF91CF911F910F91FF9008951F9348
S1130AF0CF93DF93182F7FDF882339F1C091F2253C
S1130B00D091F32565E0CE013CDFEC01009741F084
S1130B104C815D816B818A81B9D68111F3CF15C077
S1130B20A091F425B091F525812F90E0880F991FAD
S1130B301296ED91FC911397E80FF91F0190F08143
S1130B40E02D0190F081E02D1995DF91CF911F9157
S1130B50089516C60895CF938091F6258823C1F091
S1130B60E091F425F091F5250190F081E02D848148
S1130B70882371F0C0E08C2F78DFCF5FE091F425FB
S1130B80F091F5250190F081E02D8481C81798F348
S1130B901092F62581E090E08093FA259093FB254E
S1130BA0CF910895CF938091F625882341F1E09168
S1130BB0F425F091F525A081B18114968C918823B8
S1130BC0F1F0C0E08C2F90E0880F991F0280F38130
S1130BD0E02DE80FF91F0190F081E02D0084F185EC
S1130BE0E02D309709F01995CF5FE091F425F0914D
S1130BF0F525A081B18114968C91C81718F3CF9173
S1130C000895EF92FF920F931F93CF93DF93109267
S1130C105A2710925B2710925C2710925D2710923E
S1130C205E2710925F272091502722230CF08BC25D
S1130C308091562790915727009709F089C27FC267
S1130C402F7109F0B1C030915127363081F038301E
S1130C5009F49FC03111A8C0029739F462E070E032
S1130C608AEF95E20AD601E0EDC100E0EBC12091E4
S1130C70522730915327832F99278230910599F079
S1130C801CF4019739F07BC083309105D9F10F979B
S1130C9059F175C08091202090912120DC016C9144
S1130CA070E0EBD55BC0E0912020F0912120818998
S1130CB0281708F066C0C9019927880F991F880F63
S1130CC0991FE0912220F0912320E80FF91F8081E1
S1130CD09181FC0162817381D0D5E0915827F09114
S1130CE0592782E081833AC0809124209091252065
S1130CF0009709F448C0DC0112966D917C9113971A
S1130D00BCD52CC033272130310559F020F02230D6
S1130D10310559F03AC064E070E08EEB90E2ADD555
S1130D201DC084EB90E229E003C084EA90E22FE046
S1130D30382FA6E8B0E2E82FF92F819190E08D9347
S1130D409D938E2F831B8217C0F3220F62E0620FE4
S1130D506093842070E084E890E28FD580915627D8
S1130D609091572720915A2730915B278217930738
S1130D7070F480935A2790935B2701E063C100E0ED
S1130D8061C100E05FC100E05DC100E05BC101E062
S1130D9059C1019739F461E070E086EF95E26DD5B1
S1130DA001E050C100E04EC1213009F03FC0309154
S1130DB051273A30D9F5019799F58091F625882382
S1130DC089F1C0915427D0915527E090F425F090F3
S1130DD0F525D701ED91FC918481C81728F560E0D1
S1130DE08C2F09DE082F882309F42CC1CE01992702
S1130DF0880F991FD7011296ED91FC911397E80F74
S1130E00F91F0190F081E02D0680F781E02D1995FE
S1130E108093F82561E070E088EF95E22ED512C149
S1130E2000E010C100E00EC100E00CC1223009F066
S1130E300BC120915127211100C1029779F48091AF
S1130E40542785D590E08093F0259093F12562E0B6
S1130E5070E080EF95E211D501E0F4C000E0F2C04B
S1130E602F7109F090C080915127833009F4E7C0B5
S1130E7018F48130B1F087C0853019F0893061F100
S1130E8082C08091562790915727892B41F486EF91
S1130E9094E080935C2790935D2701E0D3C000E049
S1130EA0D1C08091562790915727892B89F480913E
S1130EB0522790915327019769F48091FA259091D4
S1130EC0FB258D7F8093FA259093FB2501E0BAC022
S1130ED000E0B8C000E0B6C0809156279091572733
S1130EE0892B09F046C0BED4882309F444C020915C
S1130EF05227309153273327E0912020F09121206D
S1130F00818990E082179307C0F125DE80915227F2
S1130F10909153278093F625882389F1992781504E
S1130F20904C880F991F880F991FE0912220F0910F
S1130F302320E80FF91FE093F425F093F5250190A1
S1130F40F081E02D84818823E1F0C0E060E08C2F03
S1130F50CEDD082F882309F475C0CF5FE091F42516
S1130F60F091F5250190F081E02D8481C81770F38C
S1130F7069C000E067C000E065C000E063C001E054
S1130F8061C001E05FC0213009F5809151278B30A9
S1130F90E9F48091562790915727892B99F48091F1
S1130FA0F625882389F0C0915427D09152278C2F9D
S1130FB05CDD082F882309F445C06D2F8C2F97DD45
S1130FC0082F40C000E03EC000E03CC0223009F0E1
S1130FD03BC080915127813019F08330B1F031C08A
S1130FE08091562790915727892B59F48091522745
S1130FF090915327892B39F480915427C3D4082F17
S113100021C000E01FC000E01DC0809156279091D0
S11310105727892B71F48091522790915327892B5C
S113102051F4C4E5D7E288815FD58881B3D5082F10
S113103009C000E007C000E005C000E003C000E014
S113104001C000E0011189C0809150278F71813067
S1131050C1F58091F6258823A1F1C0915427D09140
S113106055270091F4251091F525D801ED91FC91B7
S11310708481C81730F560E08C2FBDDC882309F12A
S1131080CE019927880F991FD8011296ED91FC91F2
S11310901397E80FF91F00811181D8011696ED917D
S11310A0FC9117971995682F8C2FA5DC882349F09C
S11310B0D8011496ED91FC9115971995082F81117B
S11310C04CC0809150278F718230D9F58091F625DC
S11310D0882389F1E091F425F091F525A081B1816F
S11310E014968C91882349F110E0212F30E0220FCF
S11310F0331F0280F381E02DE20FF31FC081D18101
S1131100EE81FF811995682F812F75DC082F8823C4
S113111021F1EC81FD811995082F81111EC01F5FFB
S1131120E091F425F091F525A081B18114968C917C
S11311301817D8F212C000E010C000E00EC000E0A2
S11311400CC000E00AC0822F807609F07DCF88CEE3
S1131150322F307609F078CF73CD802FDF91CF9185
S11311601F910F91FF90EF90089510920004E0E01A
S1131170F4E0218120FDFDCFE0E0F4E06087718799
S1131180809348279093492781E080830895E0E085
S1131190F4E021E022836487758760934C27709381
S11311A04D2780934A2790934B27818180FDFDCF63
S11311B0E0E0F4E082E0838385E082830895809315
S11311C04E2790934F27089564E080E00E943A14DC
S11311D0E0E0F4E08FEF9FEF82879387108611861B
S11311E08FB7F894E5E4F7E290819F5F90838FBF17
S11311F0E0E0F4E081E0828380830895811118C0E7
S113120090914027992389F09FB7F894E3E4F7E29B
S11312102081215020839FBF08C09FB7F894E3E446
S1131220F7E220812F5F20839FBF8093402708959A
S113123090914027992389F3F8CF0F93E8ECF4E0D9
S113124080818F7D808380818F7D8083E8E0F7E2D9
S113125002E0059310920A2710920B2700E20693EE
S113126000E40693E0E0F7E200E2069300E406936C
S113127010925C2710925D2710925E2710925F27D0
S113128010925A2710925B271092E5260F91089529
S11312900F9385E08093E526E9E0F7E204E0059307
S11312A0E1E0F7E204E005930F9108950F9383E0E2
S11312B08093E52610920A2710920B27E8E0F7E2C4
S11312C002E006930F910895E0915C27F0915D2769
S11312D0309709F0199508950F93CF93DF93809178
S11312E0E526833019F4F0DFA8DF60C08091E126A1
S11312F09091E226C0915A27D0915B27C81BD90B45
S113130071F52091E3263091E426820F931F809398
S1131310E3269093E426209156273091572782178D
S1131320930721F08091FC25882341F084E0809389
S1131330E526E0E0F7E202E0069338C0E0915E279C
S1131340F0915F27309799F01995882381F01092D6
S1131350E1261092E226C0915A27D0915B27C0342F
S1131360D10528F01092FC25C0E4D0E003C081E050
S11313708093FC25C0930A27D0930B278091E12604
S11313809091E2262091582730915927280F391F30
S113139020930C2730930D27C80FD91FC093E12643
S11313A0D093E226E8E0F7E202E00693DF91CF91E2
S11313B00F910895FC018181877090E0FC013197C1
S11313C0E730F10520F4E250FF4F0C945E1688E0FC
S11313D090E0089580E290E0089580E490E008951C
S11313E080E890E0089580E091E0089580E092E044
S11313F008958FEF93E0089580E190E00895282FF9
S11314002F7030E0220F331F992787FD909588278E
S1131410990F881F9927820F931F02979C01220F0F
S1131420331F220F331F220F331F820F931F835842
S1131430994D08950F93CF938091CC0480FF62C09F
S113144081E08093CC04E0E0F7E200E80693E8E072
S1131450F7E200E806938093CA04E0E0F7E200E1D3
S113146006938091E526882329F08350823008F47E
S11314702BDFE3DE8091022790910327089709F080
S113148043C088E0E1EAF6E2A0E5B7E201900D92FC
S11314908A95E1F7E8ECF4E08081806280838081C2
S11314A080628083AEDBC82F811103C0F1DEC1E00E
S11314B02CC08091502788236CF41092E32610925C
S11314C0E4261092E1261092E22682E08093E5263B
S11314D003DF1BC02091562730915727232B11F48B
S11314E0E5DE13C01092E3261092E4261092E12662
S11314F01092E22681E08093E526E0E0F7E202E044
S1131500069303C0C0E001C0C1E08C2FCF910F91BE
S11315100895BF92CF92DF92EF92FF920F931F93A1
S1131520CF93DF93B82E6BDFEC011B2D111F112716
S1131530111F8B2D8F70E82EF12CEE0CFF1CE10E89
S1131540F11CC701880F991F880F991F880F991FD5
S11315509C012050394D7901C9012CDF6C01112304
S113156009F45BC0D70116962D913C9117978D8194
S11315709E81280F391F2D833E838B819C812817E0
S11315803907C9F1FC01E21BF30B9F012115F4E0BB
S11315903F0740F02FEF33E0C901B6010E9428163F
S11315A0281B390B888181FF0AC0C901B6010E943A
S11315B0281641E0892B09F040E0942F01C090E007
S11315C0888190FB81F98883D70116961D921C921D
S11315D0179712962D933C93139729813A818D8105
S11315E09E81820F931F14968D939C931597F701F8
S11315F002E0069398C0888181FF87C08D7F88832D
S1131600D70116961D921C92179712961D921C9242
S11316101397F70102E0069386C0D70112960D9145
S11316201C911397888182FF15C0E981FA812D816D
S11316303E818B819C81B6010E942816B0E4BB9E3A
S1131640B001112463547A4DAC01CF01820F931F72
S11316500E948B172D813E81200F311F2D833E83E5
S1131660EB81FC81E217F30710F4ED83FE83D701CD
S113167016968D919C9117978017910709F045C094
S11316808D819E81E817F90709F43FC0E81BF90B27
S1131690E115B4E0FB0748F0EFEFF3E0CF01B6014A
S11316A00E942816E81BF90B06C0CF01B6010E9460
S11316B02816E81BF90BD70112961D921C9213975A
S11316C0EC15FD0578F4888184608883B0E4BB9EC2
S11316D0C001112483549A4DF70184839583C682F3
S11316E0D7820FC029813A818D819E81820F931FF9
S11316F0D70114968D939C9315971696ED93FC93AE
S11317001797F70102E006930EC0888180FF0BC093
S11317108E7F8883EF81F885309729F06D817E81F3
S11317204B2D80E01995DF91CF911F910F91FF9080
S1131730EF90DF90CF90BF900895CF93CFB7F894F8
S113174081E05CDDEAECF4E080E4808380E2808385
S1131750E1ECF4E0808181608083A9ECB4E08C91B9
S113176082608C93E8ECF4E08081806480838C91C7
S113177081608C93808180688083CFBFCF910895EE
S1131780CF9380E30E945114E0ECF4E08081806404
S11317908083CFB7F89410920127109209271092F2
S11317A01127109219271092212710922927EDE76B
S11317B0F6E280818E7F8083E6E8F6E280818E7F88
S11317C08083EFE8F6E280818E7F8083E8E9F6E2A9
S11317D080818E7F80836AE170E082E00E941E1522
S11317E08F3F19F08093FA0403C08FE18093FA04C9
S11317F06BE170E082E00E941E158F3F19F0809328
S1131800FB0403C08FE18093FB04E0ECF4E08081EF
S1131810826080838081806880838081806180830E
S113182080E097E2868397838081806280838FEF54
S11318308093C504E8ECF4E0808181608083109299
S113184040278FB7F894E7E4F7E290819F5F908395
S11318508FBF73DFCFBFCF91089580E00895809349
S1131860C30408958091C304089580913027909112
S11318703127089580E090E008958093582790934D
S1131880592760935A2770935B270895E82FEF70C8
S1131890F0E0EE0FFF1F992787FD90958827990F99
S11318A0881F9927E80FF91FEE0FFF1FEE0FFF1F88
S11318B0EE0FFF1FE050F94D8181807C09F043C099
S11318C06370613029F010F480E403C080E801C043
S11318D080EC40385105E1F050F440325105A1F05C
S11318E04034510599F04031510561F419C0411556
S11318F092E0590789F04F3F93E0590779F0411579
S1131900514041F020E00DC022E00BC023E009C0AB
S113191024E007C025E005C026E003C027E001C09D
S113192021E0118296E09083822B81838181807CE7
S1131930803C21F481818770873039F08181806215
S1131940818381E0089580E0089581E00895E82F7F
S1131950EF70F0E0EE0FFF1F992787FD9095882721
S1131960990F881F9927E80FF91FEE0FFF1FEE0F3D
S1131970FF1FEE0FFF1FE050F94D818182FB882786
S113198080F90895E82FEF70F0E0EE0FFF1F282F85
S1131990332727FD30952227330F221F3327E20FE9
S11319A0F31FEE0FFF1FEE0FFF1FEE0FFF1FE050A0
S11319B0F94D918192FF0EC091819B7F91831FDD30
S11319C0FC01808180FF06C08E7F80830780F085C4
S11319D0E02D199581E008957F928F929F92AF92A6
S11319E0BF92CF92DF92EF92FF920F931F93CF9308
S11319F0DF93982E862E5A01690101DD7C01792C32
S1131A00771C7724771CC92DCF70D0E0CC0FDD1F55
S1131A10C70DD11DCC0FDD1FCC0FDD1FCC0FDD1F7B
S1131A20C050D94D8981807C09F44CC08981807C67
S1131A30803C19F0898182FD47C08FB7F894F70183
S1131A40908190FF03C08FBF712C3FC0F70190813C
S1131A50916090838FBFF701A182B282C382D48246
S1131A601582168207831087811006C091E0C11485
S1131A70D10419F090E001C091E0F701808190FB5E
S1131A8081F98B7F8083772019F01E821F8215C015
S1131A908981807C803C69F4CE018CDCBC01C60168
S1131AA00E942816892B29F0F70180818E7F80837C
S1131AB00CC01A821B821E821F82892D2ADD772484
S1131AC0739403C0712C01C0712C872DDF91CF91C9
S1131AD01F910F91FF90EF90DF90CF90BF90AF9048
S1131AE09F908F907F900895FF920F931F93CF93B1
S1131AF0DF93182FF82EFF1CFF24FF1CC82FCF7074
S1131B00D0E0CC0FDD1FCF0DD11DCC0FDD1FCC0FCE
S1131B10DD1FCC0FDD1FC050D94D71DCDC01FE018F
S1131B2002E005938C9180FF12C08E7F8C931796F0
S1131B30ED91FC911897309751F0FF2019F06E81C8
S1131B407F8102C06A817B81412F81E01995DF91F9
S1131B50CF911F910F91FF900895CF93C82FC4DFA9
S1131B60EC2FEF70F0E0EE0FFF1F8C2F992787FD0D
S1131B7090958827990F881F9927E80FF91FEE0F72
S1131B80FF1FEE0FFF1FEE0FFF1FE050F94D1182F4
S1131B90CF9108950F93E82FEF70F0E0EE0FFF1F41
S1131BA0282F332727FD30952227330F221F332771
S1131BB0E20FF31FEE0FFF1FEE0FFF1FEE0FFF1FCD
S1131BC0E050F94D91819460918301E006938CDF9C
S1131BD081E00F9108951F920F920FB60F92112476
S1131BE008B60F9218BE09B60F9219BE0BB60F9223
S1131BF01BBE0F932F933F934F935F936F937F93EA
S1131C008F939F93AF93BF93EF93FF938091CB04F4
S1131C1088233CF480E88093CA040E94D205FDD74F
S1131C208AC08091CB0482FF20C084E08093CA04E0
S1131C308091082786FF7FC08091CC0481FD7BC002
S1131C40F9DB811178C08091E526813011F42EDB17
S1131C5072C0843009F06FC0E9E0F7E204E0059354
S1131C60E1E0F7E204E0059366C08091CB0481FFD4
S1131C705DC082E08093CA048091002786FF5BC028
S1131C808091CC0481FD57C0D5DB811154C0809173
S1131C90E526823041F484E08093E526E0E0F7E233
S1131CA002E0069348C0833009F045C0E9E0F7E25A
S1131CB004E00593E1E0F7E204E005933CC080E131
S1131CC08093CA0481E010DF81E80EDF0E94AB0537
S1131CD01092C304E1E0F7E2108296E090930027AB
S1131CE083E48083E9E0F7E21082909308278083FD
S1131CF081EA96E280930427909305279EDA1BC01D
S1131D008091CB0486FF07C080E48093CA0480E0FE
S1131D1075DA7DD710C08091CB0485FF0CC080E2BA
S1131D208093CA0481E06ADA75D705C08091CB0438
S1131D3084FFE6CFC4CFFF91EF91BF91AF919F9104
S1131D408F917F916F915F914F913F912F910F915F
S1131D500F900BBE0F9009BE0F9008BE0F900FBEE0
S1131D600F901F9018951F920F920FB60F92112487
S1131D7008B60F9218BE09B60F9219BE0AB60F9292
S1131D801ABE0BB60F921BBE0F931F932F933F9354
S1131D904F935F936F937F938F939F93AF93BF936F
S1131DA0CF93DF93EF93FF938091CC0481FD03C025
S1131DB041DB8111B9C082E08093CC048091C504D9
S1131DC08195880FE0E0F7E2E81BF1092081318179
S1131DD02050374236952795369527953695279581
S1131DE0822F869520FF02C090E801C090E0890F01
S1131DF0E82FEF70F0E0EE0FFF1F282F332727FDA9
S1131E0030952227330F221F3327E20FF31FEE0FE3
S1131E10FF1FEE0FFF1FEE0FFF1FE050F94D9081E3
S1131E2095FF82C000E20693811179C08091E52676
S1131E30843019F449DA01DA77C0C0910227D091CD
S1131E40032780915A2790915B270091E1261091F6
S1131E50E22698012C0F3D1F8217930718F4EC011A
S1131E60C01BD10B8091582790915927AE0161EA8C
S1131E7076E2800F911F0E948B170C0F1D1F009399
S1131E80E1261093E226C034D10569F48091E3265B
S1131E909091E426800F911F209156273091572767
S1131EA08217930788F000935A2710935B27E091D9
S1131EB05E27F0915F27309729F01995811102C0B0
S1131EC0E7D932C0F3D930C080915A2790915B276B
S1131ED008171907F9F4E0915E27F0915F2730970E
S1131EE011F4D6D921C01995811102C0D1D91CC0D1
S1131EF02091E3263091E4268091E1269091E22618
S1131F00820F931F8093E3269093E4261092E12698
S1131F101092E226E0E0F7E202E0069305C0803882
S1131F2011F4DAD901C0F5DAFF91EF91DF91CF9185
S1131F30BF91AF919F918F917F916F915F914F91DD
S1131F403F912F911F910F910F900BBE0F900ABEDE
S1131F500F9009BE0F9008BE0F900FBE0F901F90F8
S1131F601895FF920F931F93CF93DF938B01FB017F
S1131F708481823011F0F12C03C06894FF24F3F8BB
S1131F80F8018581813031F0823039F4FF2DF0621F
S1131F90FF2E03C08F2D8063F82EF80186818630D2
S1131FA049F018F48530A9F00DC0873039F0893034
S1131FB069F008C0FF2DF160FF2E0BC08F2D8260E9
S1131FC0F82E07C0EF2DE360FE2E03C0FF2DF7604F
S1131FD0FF2E60E185E04ED4C0EADAE0FD82F8012C
S1131FE080819181A281B381880F991FAA1FBB1F91
S1131FF0880F991FAA1FBB1F9C01AD01220F331F1D
S1132000441F551F60E079E08DE390E035D6DA0196
S1132010C9010196A11DB11DB695A7959795879500
S11320209C01215031092E833F83DF91CF911F9171
S11320300F91FF90089560E185E01CD4E0E8F6E09C
S113204083E2818382E28283E0EAFAE08CE18483A2
S113205080E38383089560E185E018D4E0EAFAE040
S1132060138214820895E0EAFAE08381882311F050
S113207083E3838308951F920F920FB60F92112466
S113208008B60F9218BE09B60F9219BE0BB60F927E
S11320901BBE2F933F934F935F936F937F938F93C5
S11320A09F93AF93BF93CF93EF93FF930E9433011A
S11320B0E0EAFAE08181887121F00E941F030E9406
S11320C03501C091A00A0E947204811105C00E94CA
S11320D025030E94360104C08C2F90E00E94BD04A9
S11320E00E943401FF91EF91CF91BF91AF919F91E5
S11320F08F917F916F915F914F913F912F910F90AD
S11321000BBE0F9009BE0F9008BE0F900FBE0F902C
S11321101F9018951F920F920FB60F92112408B6B4
S11321200F9218BE09B60F9219BE0BB60F921BBEC2
S11321302F933F934F935F936F937F938F939F93CB
S1132140AF93BF93EF93FF930E94F103882339F079
S11321500E9431010E9441048093A00A06C080E3DA
S1132160E0EAFAE083830E943201FF91EF91BF918C
S1132170AF919F918F917F916F915F914F913F911B
S11321802F910F900BBE0F9009BE0F9008BE0F90B9
S11321900FBE0F901F901895CF93DF9343E050E04C
S11321A060E880E496E098D3C0E4D6E080E88E83CB
S11321B043E050E060E280E496E08ED380E28E83D8
S11321C043E050E062E080E496E086D382E08E83D0
S11321D043E050E061E080E496E07ED381E08D83CB
S11321E0DF91CF91089587E0E0EAF0E08283FBD2AB
S11321F010924227109243271092442710924527A9
S11322001092462781E0809347270E94E40878943F
S11322101092642710926527109262271092632708
S11322200895CF92DF92EF92FF920F931F936B0169
S11322307C01DC01CB01B695A79597958795DC01C8
S113224099278827B701A601417055276627772764
S1132250032E3FE0440F551F661F771F3A95D1F7B1
S1132260302D8A019B01080F191F2A1F3B1FC9012A
S1132270B8010E94B5080B2EB1E1F694E794D79407
S1132280C794BA95D1F7B02DC0926427D092652730
S11322901F910F91FF90EF90DF90CF9008954091A0
S11322A064275091652760E070E0BA015527442700
S11322B020914A2730914B27420F531F611D711DF6
S11322C0DC01ED91FC91309709F18081811116C0F8
S11322D081819281A381B48184179507A607B707EA
S11322E068F017C08081811109C081819281A38126
S11322F0B48184179507A607B70770F40184F285A3
S1132300E02D309779F780E090E0089580E090E048
S113231008958E2F9F2F08958E2F9F2F0895CF936A
S1132320DF9382E697E2BBDFEC01009759F08D81E1
S11323309E810E94DF0869817A818B819C810E9441
S1132340C70804C080E090E00E94DF08C0936027C3
S1132350D0936127DF91CF910895CF92DF92EF92CE
S1132360FF92E0916227F0916327309799F1C09032
S11323706427D0906527E12CF12C7601DD24CC2450
S11323808091482790914927C80ED91EE11CF11C61
S11323904181528163817481C416D506E606F7062D
S11323A0C8F081859285009779F080936227909395
S11323B06327CF0121D5E0916227F091632717822B
S11323C01086309729F706C0CF0116D510926227E0
S11323D010926327FF90EF90DF90CF900895CF92F3
S11323E0DF92EF92FF920F931F93CF93DF936B01D2
S11323F07C018A01B2DF8BE090E066D4DC011196A7
S1132400CD92DD92ED92FC92149715960D931C9348
S113241016971C92C0916227D09163272097F1F4FC
S1132420809362279093632719961D921C921A97A2
S113243017961D921C92189780936027909361279A
S1132440C8010E94DF08E0916227F091632761814F
S11324507281838194810E94C70842C049815A8154
S11324606B817C81C416D506E606F70658F58F8382
S1132470988717961D921C9218971996CD93DC9302
S11324801A9780936227909363272AC041815281CF
S113249063817481C416D506E606F70610F0EF01D1
S11324A011C01996ED93FC931A978781908517961E
S11324B08D939C931897C781D085A987BA87A783E2
S11324C0B0870EC0E985FA85309701F7A987BA87E6
S11324D01796CD93DC93189719961D921C921A9710
S11324E0DF91CF911F910F91FF90EF90DF90CF90EC
S11324F008951F920F920FB60F92112408B60F92EF
S113250018BE0BB60F921BBE8F939F93EF93FF934E
S1132510E8E4F7E280819181019680839183892B9D
S113252049F48091642790916527019680936427EC
S113253090936527FF91EF919F918F910F900BBE20
S11325400F9008BE0F900FBE0F901F9018951F920A
S11325500F920FB60F92112408B60F9218BE09B647
S11325600F9219BE0AB60F921ABE0BB60F921BBE7B
S1132570CF92DF92EF92FF920F931F932F933F938B
S11325804F935F936F937F938F939F93AF93BF9377
S1132590CF93DF93EF93FF93009164271091652706
S11325A08091482790914927A0E0B0E020E030E0F6
S11325B0980111270027082B192B2A2B3B2B000FDE
S11325C0111F221F331F000F111F221F331FE0E0B2
S11325D0F4E0408551854427550F441F552760E09A
S11325E070E0042B152B262B372B40914A27509152
S11325F04B2760E070E0BA0155274427C0904C2770
S1132600D0904D27E12CF12C4C295D296E297F298E
S1132610401751076207730708F04AC0E09160272A
S1132620F0916127309709F443C02081211140C003
S113263021E0E0E0F4E02283E0914E27F0914F277F
S11326403097B1F1C0E0D4E0688579859C01112709
S11326500027CB01A0E0B0E0BC01CD01602B712BC1
S1132660822B932B00914A2710914B2720E030E0D6
S1132670980111270027C0904C27D0904D27E12CBA
S1132680F12C0C291D292E293F2906171707280785
S1132690390730F0C901B8016F5F7F4F8F4F9F4FEB
S11326A01995E0916027F091612781E0808337DEFE
S11326B0FF91EF91DF91CF91BF91AF919F918F9156
S11326C07F916F915F914F913F912F911F910F9146
S11326D0FF90EF90DF90CF900F900BBE0F900ABE4B
S11326E00F9009BE0F9008BE0F900FBE0F901F9061
S11326F018950F931F93CF93DF931F92CDB7DEB737
S1132700082F11E01983BE016F5F7F4F80E090E0D6
S113271056D1E0E0F6E0168303B9BE016F5F7F4F48
S113272080E090E062D10F90DF91CF911F910F91E3
S11327300895CF92DF92EF92FF920F931F93CF935E
S1132740DF931F92CDB7DEB784E0E0E0F6E0868346
S1132750858381E0898380E090E0E6D0C12CD12C90
S1132760760100E01BE127EB30E040E0BE016F5F43
S11327707F4F80E090E004D1069A88EABADF8FE1C7
S1132780B8DF83EDB6DF80E0B4DF80E4B2DF81EA56
S1132790B0DF88ECAEDF8AEDACDF82E0AADF81E84F
S11327A0A8DF8FE8A6DF84EAA4DF86EAA2DF85ED4E
S11327B0A0DF80E89EDF8DE89CDF84E19ADF8BED6B
S11327C098DF80E496DF89ED94DF81EF92DF8FEA72
S11327D090DF0F90DF91CF911F910F91FF90EF90B9
S11327E0DF90CF900895CF93DF9300D01F92CDB7A1
S11327F0DEB78FEF80937000809371008093720036
S113280080937300809374008093750080937600A6
S11328106CE170E082E012D18A836DE170E082E0C5
S11328200DD1898389819A81019621F480E493E210
S113283089839A8389819A818B839C83E0E6F0E083
S113284082838C81838382E0E0E5F0E082838FB72A
S1132850F8949081986090838FBF818183FFFDCF2E
S11328608BE0E0E4F0E083832496CDBFDEBFDF910C
S1132870CF9108959FB7F894E82FF0E0E059FF4F07
S113288060958081682360839FBF08959FB7F89403
S1132890E82FF0E0E059FF4F8081682B60839FBFF1
S11328A00895863011F468E101C060E0E0E5F0E0ED
S11328B0818181FD09C08FB7F894908192609083E3
S11328C08FBF818181FFFDCF636084E490E0B0D04D
S11328D060E480E0CFCF0895CF93DF93FC0170963E
S11328E020E030E0C62FD0E0DE01022E02C0B59514
S11328F0A7950A94E2F7A0FD50832F5F3F4F3196CE
S11329002830310589F740FF0AC041FF03C0FC01AC
S1132910658302C0FC016683FC01618302C0FC0183
S11329206283DF91CF9108950F931F93CF93DF9329
S1132930EC018C01C03C88E0D80721F468E083E016
S113294099DF10C0C03C89E0D80721F468E084E036
S113295091DF0EC0C03C8AE0D80721F468E085E02E
S113296089DF06C0003C1B4019F468E086E082DF82
S1132970888180618883DF91CF911F910F910895A1
S1132980FF920F931F93CF93DF93EC01F42EB901C1
S1132990A80100E814E82EE130E05AD088234CF076
S11329A088819F2D990F990F9C70837FF92EF82AA7
S11329B0F882DF91CF911F910F91FF900895FB0151
S11329C08081E82FE695E695E69540E2E49FF001E4
S11329D01124FA5F877021E030E0A90102C0440F9E
S11329E0551F8A95E2F746830895FB018081E82FFD
S11329F0E695E695E69540E2E49FF0011124FA5F3E
S1132A00877021E030E0A90102C0440F551F8A9568
S1132A10E2F74583089543E050E068E080EC97E0F6
S1132A205BDF40E058E164E080EC97E055CF089527
S1132A301BBEFC0128ED24BF608308954091CA01A8
S1132A40E62FF72F8093CA0184914093CA01089519
S1132A50CF92DF92EF92FF920F931F93CF93DF9366
S1132A60EC016A017B01DB01CA010197A109B109EB
S1132A70BC01CD01600F711F821F931FA701960136
S1132A80FBD02138310541055105F8F4213460F4B7
S1132A90213260F4213160F4293060F4253060F48F
S1132AA0233060F090E00BC093E009C092E007C0CF
S1132AB092E805C091E003C091E801C090E88881E4
S1132AC08C77892B888381E001C08FEFDF91CF91D0
S1132AD01F910F91FF90EF90DF90CF90089588E0C1
S1132AE0E0ECF7E086838AE694E0A1E0B0E00197A9
S1132AF0A109B1090097A105B105C9F788E0E0EC87
S1132B00F7E0858308952AE030E0E0ECF7E048E060
S1132B10808583FD02C0458301C0468380E090E048
S1132B2001968A3151E49507D9F7215031092115CD
S1132B30310571F7089525E030E0E0ECF7E048E076
S1132B40808583FD02C0458301C0468380E090E018
S1132B500196803553EC9507D9F721503109211599
S1132B60310571F788E0E0ECF7E08583089553DFE1
S1132B70E0DD87E0E0EAF0E082830EDB34DB33DE85
S1132B804ADF0E942C010E942D010E94A90565ECD8
S1132B9072E685E596E545DB4FE655E167EC72E6BE
S1132BA085E596E51CDC43E855E169EC72E685E5CC
S1132BB096E515DC4BE955E16AEC72E685E596E5A8
S1132BC00EDCC2E4D7E283E497E2A8E4B0E0F89430
S1132BD02881211107C0FC012F5F31913323E1F3D8
S1132BE0211102C07894F3CF3C91E22FF0E0EB5F27
S1132BF0FF4D232F217F3081232B2C932C91216097
S1132C002C93789488952C912E7F2C93E0CF0C9460
S1132C102D0108950C942E01089580914127882355
S1132C2021F00E94350C0C943701089591E09093A3
S1132C30412701DA81E00895109241270CCA0895D2
S1132C40662319F00C942F0108950C943001089513
S1132C50AA1BBB1B51E107C0AA1FBB1FA617B707BE
S1132C6010F0A61BB70B881F991F5A95A9F78095DA
S1132C709095BC01CD010895A1E21A2EAA1BBB1B9D
S1132C80FD010DC0AA1FBB1FEE1FFF1FA217B30734
S1132C90E407F50720F0A21BB30BE40BF50B661F4A
S1132CA0771F881F991F1A9469F76095709580950E
S1132CB090959B01AC01BD01CF010895EE0FFF1F5C
S1132CC00590F491E02D1994CF93DF938230910510
S1132CD010F482E090E0E0916827F091692720E009
S1132CE030E0A0E0B0E0309739F1408151814817DD
S1132CF05907B8F04817590771F4828193811097E6
S1132D0029F012968D939C9313972CC08093682777
S1132D109093692727C02115310531F042175307D5
S1132D2018F0A901DB0101C0EF019A01BD01DF0127
S1132D300280F381E02DD7CF21153105F9F0281B4E
S1132D40390B2430310580F48A819B81611571052A
S1132D5021F0FB018283938304C0809368279093BE
S1132D606927FE01329644C0FE01E20FF31F8193EE
S1132D70919322503109288339833AC020916627E0
S1132D8030916727232B41F42091022030910320B6
S1132D9020936627309367272091002030910120EB
S1132DA02115310541F42DB73EB7409104205091CF
S1132DB00520241B350BE0916627F0916727E21765
S1132DC0F307A0F42E1B3F0B2817390778F0AC014A
S1132DD04E5F5F4F2417350748F04E0F5F1F409337
S1132DE06627509367278193919302C0E0E0F0E057
S1132DF0CF01DF91CF910895CF93DF93009709F42A
S1132E0087C0FC01329712821382C0916827D09147
S1132E106927209781F420813181280F391F8091FF
S1132E206627909167278217930779F5E0936627C1
S1132E30F09367276DC0DE0120E030E0AE17BF07D6
S1132E4050F412964D915C9113979D0141155105D3
S1132E5009F1DA01F3CFA283B38340815181840F56
S1132E60951F8A179B0771F48D919C911197840F7C
S1132E70951F02968083918312968D919C9113974E
S1132E80828393832115310529F4E0936827F09315
S1132E9069273EC0D9011296ED93FC9313974D9187
S1132EA05D91A40FB51FEA17FB0779F48081918126
S1132EB0840F951F0296D9018D939C93119782815B
S1132EC0938112968D939C931397E0E0F0E08A81AE
S1132ED09B81009719F0FE01EC01F9CFCE01029617
S1132EE028813981820F931F2091662730916727AB
S1132EF02817390769F4309729F41092682710923B
S1132F00692702C012821382C0936627D093672771
S1132F10DF91CF910895FB01DC0102C001900D9275
S10F2F2041505040D8F70895F894FFCFBA
S1132F2C00006A272000000E060C04009003BA026D
S1132F3C4C014E01590256014601C6024E010000D5
S1132F4C7220262000002E202A2016200C20090294
S1132F5C4300020100C03209040000010202010016
S1132F6C0524001001042402020524060001052492
S1132F7C0103010705820340001009040100020A41
S1132F8C0000000705810240000007050202400012
S1132F9C00001201000202000040EB0304240001B3
S1132FAC010200010003000000000000000000000A
S1132FBC0000000000000000000000000000000001
S1132FCC00000000434443205669727475616C2000
S1132FDC436F6D0041544D454C204153460004034E
S1052FEC0904D2
S9030000FC
