S00F00004A4C525F4C45442E73726563F9
S113000004C1000028C1000026C1000024C1000072
S113001022C1000020C100001EC100001CC100005C
S11300201AC1000018C100000C948E110C94BC116C
S113003012C1000010C100000EC100000CC100007C
S11300400AC1000008C1000006C1000004C100008C
S113005002C1000000C10000FEC00000FCC000009E
S1130060FAC00000F8C00000F6C00000F4C00000B0
S1130070F2C00000F0C00000EEC00000ECC00000C0
S1130080EAC00000E8C00000E6C00000E4C00000D0
S1130090E2C00000E0C00000DEC00000DCC00000E0
S11300A0DAC00000D8C00000D6C00000D4C00000F0
S11300B0D2C00000D0C00000CEC00000CCC0000000
S11300C0CAC00000C8C00000C6C00000C4C0000010
S11300D0C2C00000C0C00000BEC00000BCC0000020
S11300E0BAC00000B8C000000C94520F0C94A10FC9
S11300F0B2C00000B0C00000AEC00000ACC0000040
S1130100AAC00000A8C00000A6C00000A4C000004F
S1130110A2C00000A0C000009EC000009CC000005F
S11301209AC0000098C0000096C0000094C000006F
S113013092C0000090C000008EC000008CC000007F
S11301408AC0000088C0000086C0000084C000008F
S113015082C0000080C000007EC000007CC000009F
S11301607AC0000078C0000076C0000074C00000AF
S113017072C0000070C000006EC000006CC00000BF
S11301806AC0000068C0000066C0000064C00000CF
S113019062C0000060C000005EC000005CC00000DF
S11301A05AC0000058C0000056C0000054C00000EF
S11301B052C0000050C000004EC000004CC00000FF
S11301C04AC0000048C0000046C0000044C000000F
S11301D042C0000040C000003EC000003CC000001F
S11301E03AC0000038C0000036C0000034C000002F
S11301F032C000000C94900D0C94550EA209900985
S11302009309960999099C099F0911241FBECFEFF0
S1130210CDBFDFE3DEBF00E00CBF18BE19BE1ABEBF
S11302201BBE10E2A0E0B0E2EAEFFCE200E00BBF8C
S113023002C007900D92A838B107D9F71BBE23E27C
S1130240A8E8B0E201C01D92A932B207E1F70E940A
S1130250C1140C947B16D4CE08950895089508957E
S1130260089508950895089510929E211092AA2148
S11302701092AB2181EA8093A02180E28093A12196
S11302801092A2211092A3211092A4211092A521D0
S113029082E090E08093A6219093A7211092A82158
S11302A01092A92180E092ECA1E0B0E08093AE210D
S11302B09093AF21A093B021B093B1211092B221B9
S11302C01092B32188E08093B42180919E218F5FA6
S11302D080939E2181E0089580919E218150809396
S11302E09E21089580919D21815080939D2180912C
S11302F09D2110929C21089580E0089580E0089546
S113030080910F238823DCF480768032E9F5809194
S113031010238132D9F580911523909116230797E4
S1130320B9F58EEA91E2809317239093182387E01E
S113033090E08093192390931A2381E008958076A6
S1130340803241F580911023803221F0823221F5F0
S113035081E0089580911523909116230797F1F475
S113036080ED91E080931B2390931C238EEA91E20D
S1130370809317239093182387E090E080931923A8
S113038090931A2381E0089580E0089580E0089511
S113039080E0089580E0089580E0089580E0089565
S11303A00895FF920F931F93CF93DF9380918B2037
S11303B081119CC00E94D20B882351F0C0918C20E3
S11303C0D0918D200E94DF0BC817D90759F48EC035
S11303D0C0918C20D0918D200E94DA0BC817D907C8
S11303E009F484C0DFB7F894C0918E20EC2FF0E0BC
S11303F0EE0FFF1FE157FF4D80819181892B09F595
S113040080918820909189200196809388209093F0
S113041089200E94D20B811107C08091882090917D
S113042089208436910558F00E94D20B882349F024
S113043080918820909189208032934010F4DFBF0E
S113044055C0109288201092892080918A208111B1
S113045006C081E0C11180E080938E2004C081E059
S1130460C11180E0C82F81E080938B20DFBFD0E0F2
S1130470FE01EE0FFF1FE157FF4DFF24F39480812F
S113048091818034910509F4F12CFF2091F00E94B0
S1130490D20B882339F00E94DF0B80938C20909339
S11304A08D200BC00E94DA0B80938C2090938D20BA
S11304B004C010928C2010928D20FE01EE0FFF1FBD
S11304C0E157FF4D20813181AE01002456954795B7
S11304D00794569547950794542F402D4C565F4DDD
S11304E00CE712E06F2D81E80E94910CDF91CF910F
S11304F01F910F91FF900895811115C020918E20B6
S113050081E090E0222311F080E090E0FC01EE0F06
S1130510FF1FE157FF4D1082118210928A20109222
S11305208B2080E03ECF089580E03BCF08950F9369
S11305301F93862F9091AC2191111EC04091AA2146
S11305405091AB212091A8213091A9214217530742
S113055099F02091AA213091AB212093A8213093C6
S1130560A9210FED12E02AE030E040EA51E260E018
S11305700E94910C8093AC211F910F9108952FB785
S1130580F894662359F08091AA219091AB21482BCD
S1130590592B4093AA215093AB210CC08091AA21DE
S11305A09091AB2140955095482359234093AA211B
S11305B05093AB212FBF62E880E0B9CF0895109229
S11305C0AC218091AA219091AB2183788093AA21B8
S11305D09093AB21E8EAF1E2808191818378808372
S11305E09183642F80E0A3CF089540E150E061E05F
S11305F080E0C5CF089540E450E061E080E0BFCFE3
S113060008954FB7F8942091152130911621E09167
S11306101721F0E0EE0FFF1FE85EFE4D808191810F
S1130620821B930B4FBF0895ECDF21E0892B09F463
S113063020E0822F08950F931F93CF93DF934FB73A
S1130640F8945091172180911421811110C02091A8
S1130650152130911621C52FD0E0FE01EE0FFF1FAA
S1130660E85EFE4D808191812817390718F44FBF49
S113067080E023C0109215211092162181E05111BF
S113068080E08093172181E0809314214FBF80E0A4
S1130690CBDFAE01002456954795079456954795B0
S11306A00794542F402D445E5E4D04E913E020E48A
S11306B030E061E082E00E94910CDF91CF911F91C4
S11306C00F91089510929D2110928B2010928A20F0
S11306D010928E2010928F201092902010929120D0
S11306E01092922010928C2010928D2080E059DE7E
S11306F0109214211092172110921821109219218E
S1130700109215211092162180E095DF882359F06C
S113071090919D219F5F90939D2190919D21913077
S113072011F490939C2108950F931F93942F81119A
S113073029C080911721E1E08111E0E06115710584
S1130740B1F4F0E00024F695E7950794F695E79563
S11307500794FE2FE02DAF01445E5E4D04E913E0E3
S113076020E430E061E0892F0E94910C0BC0F0E09E
S1130770EE0FFF1FE85EFE4D60837183109214211B
S113078080E059DF1F910F91089580E04DCF0895C7
S11307901F93CF93DF9311E08091B421893009F046
S11307A010E060E070E03FB7F894809115219091DB
S11307B01621209117213FBF30E0F901EE0FFF1FF2
S11307C0E85EFE4D408151818417950730F0809199
S11307D09C218111E8CF90E020C0F9010024F69516
S11307E0E7950794F695E7950794FE2FE02DE80F1B
S11307F0F91FE45EFE4D2081EB01C22B019680932C
S113080015219093162180E016DF112321F07C2F0F
S1130810662710E0C8CF8C2F9D2FDF91CF911F91B9
S1130820089580E0B5CF08959FB7F89480918E2005
S1130830E82FF0E0EE0FFF1FE157FF4D20813181DB
S11308402034310589F440918B2041110DC0409131
S11308508A20411109C021E020938A20811120E0DF
S113086020938E2020E030E09FBF80E490E0821B44
S1130870930B0895D9DF21E0892B09F420E0822F1E
S1130880089580E0F7CF08951F93CF93DF93162F39
S1130890C72FD1E08091B421893009F0D0E080E005
S11308A0E9DF811107C080919C218111F8CF80E09C
S11308B090E02BC06FB7F89420918E2030E0F901BE
S11308C0EE0FFF1FE157FF4D80819181AC014F5F17
S11308D05F4F40835183F9010024F695E79507940F
S11308E0F695E7950794FE2FE02D8E0F9F1FFC01D0
S11308F0EC56FF4D10836FBFDD2329F01C2FCC0F66
S1130900CC0BD0E0CCCF81E090E0DF91CF911F9170
S11309100895BC0180E0B8CF0895E091BA21F09128
S1130920BB210190F081E02D228133812E0F3F1FE6
S1130930FC014081E40FF11DE217F307A0F481816B
S11309408430A1F0861306C014C081818430A1F0E4
S11309508617A9F08081E80FF11DE217F307A8F3C9
S113096080E090E0089580E090E0089580E090E0D9
S113097008958E2F9F2F089580E090E008958E2F84
S11309809F2F0895809111238F770EC7089590911A
S1130990BC21992381F1E091BA21F091BB2101900E
S11309A0F081E02D9481891740F5E093B821F0930C
S11309B0B921228133812E0F3F1FE217F307F8F488
S11309C09181943061F49281981309C093819613B4
S11309D006C0E093B821F093B92181E00895908195
S11309E0E90FF11DE217F30758F3E093B821F093F0
S11309F0B92180E0089580E0089580E0089580E0C2
S1130A000895FF920F931F93CF93DF93C82F60E055
S1130A10BEDFF82E882381F1A091BA21B091BB21C9
S1130A20EC2FF0E0EE0FFF1F12962D913C911397DF
S1130A30E20FF31F00811181D8011696ED91FC910C
S1130A4017971995682F8C2FA2DFF82E8823A1F011
S1130A50C091B821D091B92165E0CE015EDFEC01EF
S1130A60009721F08A810E94520DF6CFD801129688
S1130A70ED91FC91139719958F2DDF91CF911F91D3
S1130A800F91FF9008951F93CF93DF93182F7FDF6B
S1130A90882339F1C091B821D091B92165E0CE0104
S1130AA03CDFEC01009741F04C815D816B818A81D0
S1130AB092D68111F3CF15C0A091BA21B091BB2178
S1130AC0812F90E0880F991F1296ED91FC91139756
S1130AD0E80FF91F0190F081E02D0190F081E02DE5
S1130AE01995DF91CF911F910895F0C50895CF9383
S1130AF08091BC218823C1F0E091BA21F091BB21FF
S1130B000190F081E02D8481882371F0C0E08C2F66
S1130B1078DFCF5FE091BA21F091BB210190F081A1
S1130B20E02D8481C81798F31092BC2181E090E0F5
S1130B308093C0219093C121CF910895CF93809148
S1130B40BC21882341F1E091BA21F091BB21A0811D
S1130B50B18114968C918823F1F0C0E08C2F90E041
S1130B60880F991F0280F381E02DE80FF91F01908F
S1130B70F081E02D0084F185E02D309709F019957E
S1130B80CF5FE091BA21F091BB21A081B18114968D
S1130B908C91C81718F3CF910895EF92FF920F9399
S1130BA01F93CF93DF931092192310921A2310925C
S1130BB01B2310921C2310921D2310921E2320919C
S1130BC00F2322230CF065C28091152390911623E4
S1130BD0009709F063C259C22F7109F08BC030919C
S1130BE01023363081F0383009F479C0311182C0D5
S1130BF0029739F462E070E080EC91E2E3D501E021
S1130C00C7C100E0C5C12091112330911223832F65
S1130C1099278230910599F01CF4019739F055C059
S1130C2083309105D1F10F9759F14FC08091202065
S1130C3090912120DC016C9170E0C4D535C0E09125
S1130C402020F09121208189281708F040C0C90193
S1130C509927880F991F880F991FE0912220F091FE
S1130C602320E80FF91F80819181FC016281738147
S1130C70A9D5E0911723F091182382E0818314C051
S1130C808091242090912520009719F1DC0112967F
S1130C906D917C91139796D507C021111CC064E017
S1130CA070E084E890E28ED580911523909116230C
S1130CB02091192330911A238217930770F480939B
S1130CC0192390931A2301E063C100E061C100E09D
S1130CD05FC100E05DC100E05BC101E059C1019763
S1130CE039F461E070E08CEB91E26CD501E050C125
S1130CF000E04EC1213009F03FC0309110233A305A
S1130D00D9F5019799F58091BC21882389F1C09187
S1130D101323D0911423E090BA21F090BB21D70182
S1130D20ED91FC918481C81728F560E08C2F2FDEAB
S1130D30082F882309F42CC1CE019927880F991F05
S1130D40D7011296ED91FC911397E80FF91F0190CA
S1130D50F081E02D0680F781E02D19958093BE2166
S1130D6061E070E08EEB91E22DD512C100E010C17C
S1130D7000E00EC100E00CC1223009F00BC120914B
S1130D801023211100C1029779F48091132384D593
S1130D9090E08093B6219093B72162E070E086EBF7
S1130DA091E210D501E0F4C000E0F2C02F7109F027
S1130DB090C080911023833009F4E7C018F4813087
S1130DC0B1F087C0853019F0893061F182C080911B
S1130DD0152390911623892B41F482EC94E080939F
S1130DE01B2390931C2301E0D3C000E0D1C0809169
S1130DF0152390911623892B89F4809111239091C6
S1130E001223019769F48091C0219091C1218D7FB3
S1130E108093C0219093C12101E0BAC000E0B8C022
S1130E2000E0B6C08091152390911623892B09F018
S1130E3046C0BDD4882309F444C0209111233091C5
S1130E4012233327E0912020F0912120818990E022
S1130E5082179307C0F14BDE8091112390911223E6
S1130E608093BC21882389F199278150904C880F65
S1130E70991F880F991FE0912220F0912320E80FF9
S1130E80F91FE093BA21F093BB210190F081E02D8A
S1130E9084818823E1F0C0E060E08C2FF4DD082F2A
S1130EA0882309F475C0CF5FE091BA21F091BB218A
S1130EB00190F081E02D8481C81770F369C000E0CF
S1130EC067C000E065C000E063C001E061C001E00C
S1130ED05FC0213009F5809110238B30E9F48091B3
S1130EE0152390911623892B99F48091BC21882392
S1130EF089F0C0911323D09111238C2F82DD082F08
S1130F00882309F445C06D2F8C2FBDDD082F40C008
S1130F1000E03EC000E03CC0223009F03BC08091BC
S1130F201023813019F08330B1F031C08091152342
S1130F3090911623892B59F48091112390911223B7
S1130F40892B39F480911323C2D4082F21C000E0E7
S1130F501FC000E01DC08091152390911623892B9A
S1130F6071F48091112390911223892B51F4C3E1E0
S1130F70D3E288815ED58881B2D5082F09C000E00C
S1130F8007C000E005C000E003C000E001C000E0CD
S1130F90011189C080910F238F718130C1F5809137
S1130FA0BC218823A1F1C0911323D0911423009173
S1130FB0BA211091BB21D801ED91FC918481C8170D
S1130FC030F560E08C2FE3DC882309F1CE0199270A
S1130FD0880F991FD8011296ED91FC911397E80F91
S1130FE0F91F00811181D8011696ED91FC91179794
S1130FF01995682F8C2FCBDC882349F0D8011496DF
S1131000ED91FC9115971995082F81114CC0809191
S11310100F238F718230D9F58091BC21882389F107
S1131020E091BA21F091BB21A081B18114968C91F9
S1131030882349F110E0212F30E0220F331F028072
S1131040F381E02DE20FF31FC081D181EE81FF8196
S11310501995682F812F9BDC082F882321F1EC81BF
S1131060FD811995082F81111EC01F5FE091BA21DF
S1131070F091BB21A081B18114968C911817D8F2FC
S113108012C000E010C000E00EC000E00CC000E0A0
S11310900AC0822F807609F07DCF88CE322F307639
S11310A009F078CF99CD802FDF91CF911F910F91C7
S11310B0FF90EF90089510920004E0E0F4E02181A5
S11310C020FDFDCFE0E0F4E0608771878093072383
S11310D09093082381E080830895E0E0F4E021E028
S11310E022836487758760930B2370930C2380930A
S11310F0092390930A23818180FDFDCFE0E0F4E091
S113110082E0838385E08283089580930D23909306
S11311100E23089564E080E00E944F13E0E0F4E0C1
S11311208FEF9FEF82879387108611868FB7F8948D
S1131130E4E0F3E290819F5F90838FBFE0E0F4E00E
S113114081E0828380830895811118C090910023E7
S1131150992389F09FB7F894E2E0F3E220812150CB
S113116020839FBF08C09FB7F894E2E0F3E2208198
S11311702F5F20839FBF80930023089590910023C5
S1131180992389F3F8CF0F93E8ECF4E080818F7D05
S1131190808380818F7D8083E8ECF2E202E0059316
S11311A01092CA221092CB2200E2069300E4069326
S11311B0E0ECF2E200E2069300E4069310921B23B3
S11311C010921C2310921D2310921E231092192397
S11311D010921A231092AB220F9108950F9385E079
S11311E08093AB22E9ECF2E204E00593E1ECF2E255
S11311F004E005930F9108950F9383E08093AB224D
S11312001092CA221092CB22E8ECF2E202E006939A
S11312100F910895E0911B23F0911C23309709F05E
S1131220199508950F93CF93DF938091AB22833068
S113123019F4F0DFA8DF60C08091A7229091A82262
S1131240C0911923D0911A23C81BD90B71F5209191
S1131250A9223091AA22820F931F8093A9229093EE
S1131260AA2220911523309116238217930721F087
S11312708091C221882341F084E08093AB22E0EC8A
S1131280F2E202E0069338C0E0911D23F0911E23A0
S1131290309799F01995882381F01092A722109223
S11312A0A822C0911923D0911A23C034D10528F063
S11312B01092C221C0E4D0E003C081E08093C22137
S11312C0C093CA22D093CB228091A7229091A822C6
S11312D02091172330911823280F391F2093CC22F3
S11312E03093CD22C80FD91FC093A722D093A82230
S11312F0E8ECF2E202E00693DF91CF910F910895BA
S1131300FC018181877090E0FC013197E730F105A1
S113131020F4E250FF4F0C94451588E090E00895C6
S113132080E290E0089580E490E0089580E890E001
S1131330089580E091E0089580E092E008958FEFB1
S113134093E0089580E190E00895282F2F7030E015
S1131350220F331F992787FD90958827990F881F9F
S11313609927820F931F02979C01220F331F220F8C
S1131370331F220F331F820F931F8D5B9D4D0895E2
S11313800F93CF938091CC0480FF62C081E080935F
S1131390CC04E0ECF2E200E80693E8ECF2E200E8C8
S11313A006938093CA04E0ECF2E200E10693809194
S11313B0AB22882329F08350823008F42BDFE3DE4C
S11313C08091C2229091C322089709F043C088E01B
S11313D0E7E6F2E2AFE0B3E201900D928A95E1F71D
S11313E0E8ECF4E080818062808380818062808385
S11313F0D4DBC82F811103C0F1DEC1E02CC0809181
S11314000F2388236CF41092A9221092AA2210921E
S1131410A7221092A82282E08093AB2203DF1BC094
S11314202091152330911623232B11F4E5DE13C0EC
S11314301092A9221092AA221092A7221092A822F6
S113144081E08093AB22E0ECF2E202E0069303C079
S1131450C0E001C0C1E08C2FCF910F910895BF92DD
S1131460CF92DF92EF92FF920F931F93CF93DF936C
S1131470B82E6BDFEC011B2D111F1127111F8B2DB3
S11314808F70E82EF12CEE0CFF1CE10EF11CC7014D
S1131490880F991F880F991F880F991F9C0120544A
S11314A03D4D7901C9012CDF6C01112309F45BC0A6
S11314B0D70116962D913C9117978D819E81280F07
S11314C0391F2D833E838B819C8128173907C9F1ED
S11314D0FC01E21BF30B9F012115F4E03F0740F0F0
S11314E02FEF33E0C901B6010E940F15281B390BF9
S11314F0888181FF0AC0C901B6010E940F1541E02D
S1131500892B09F040E0942F01C090E0888190FB82
S113151081F98883D70116961D921C92179712960B
S11315202D933C93139729813A818D819E81820F5B
S1131530931F14968D939C931597F70102E00693DD
S113154098C0888181FF87C08D7F8883D7011696D4
S11315501D921C92179712961D921C921397F701D5
S113156002E0069386C0D70112960D911C91139741
S1131570888182FF15C0E981FA812D813E818B81AA
S11315809C81B6010E940F15B0E4BB9EB0011124EA
S11315906D577E4DAC01CF01820F931F0E947216CE
S11315A02D813E81200F311F2D833E83EB81FC81F1
S11315B0E217F30710F4ED83FE83D70116968D919D
S11315C09C9117978017910709F045C08D819E81E2
S11315D0E817F90709F43FC0E81BF90BE115B4E07B
S11315E0FB0748F0EFEFF3E0CF01B6010E940F15BF
S11315F0E81BF90B06C0CF01B6010E940F15E81BCA
S1131600F90BD70112961D921C921397EC15FD0548
S113161078F4888184608883B0E4BB9EC00111247F
S11316208D579E4DF70184839583C682D7820FC060
S113163029813A818D819E81820F931FD70114964F
S11316408D939C9315971696ED93FC931797F7013A
S113165002E006930EC0888180FF0BC08E7F8883D2
S1131660EF81F885309729F06D817E814B2D80E0E4
S11316701995DF91CF911F910F91FF90EF90DF901B
S1131680CF90BF900895CF93CFB7F89481E05CDDFD
S1131690EAECF4E080E4808380E28083E1ECF4E02F
S11316A0808181608083A9ECB4E08C9182608C930A
S11316B0E8ECF4E08081806480838C9181608C9379
S11316C0808180688083CFBFCF910895CF9380E3DA
S11316D0F2D7E0ECF4E0808180648083CFB7F894A3
S11316E01092C1221092C9221092D1221092D922B2
S11316F01092E1221092E922E3E4F2E280818E7FEB
S11317008083ECE4F2E280818E7F8083E5E5F2E27F
S113171080818E7F8083EEE5F2E280818E7F8083FC
S11317206AE170E082E00E9428148F3F19F08093F0
S1131730FA0403C08FE18093FA046BE170E082E065
S11317400E9428148F3F19F08093FB0403C08FE19B
S11317508093FB04E0ECF4E08081826080838081EC
S11317608068808380818061808380EC92E28683BC
S113177097838081806280838FEF8093C504E8EC37
S1131780F4E0808181608083109200238FB7F89405
S1131790E6E0F3E290819F5F90838FBF74DFCFBF59
S11317A0CF91089580E008958093C30408958091B3
S11317B0C30408958091F0229091F122089580E06D
S11317C090E008958093172390931823609319232E
S11317D070931A230895E82FEF70F0E0EE0FFF1FC7
S11317E0992787FD90958827990F881F9927E80FD7
S11317F0F91FEE0FFF1FEE0FFF1FEE0FFF1FE05448
S1131800FD4D8181807C09F043C06370613029F013
S113181010F480E403C080E801C080EC4038510536
S1131820E1F050F440325105A1F04034510599F0F3
S11318304031510561F419C0411592E0590789F00E
S11318404F3F93E0590779F04115514041F020E0B2
S11318500DC022E00BC023E009C024E007C025E04E
S113186005C026E003C027E001C021E0118296E014
S11318709083822B81838181807C803C21F48181CF
S11318808770873039F081818062818381E0089597
S113189080E0089581E00895E82FEF70F0E0EE0F06
S11318A0FF1F992787FD90958827990F881F9927EF
S11318B0E80FF91FEE0FFF1FEE0FFF1FEE0FFF1FC4
S11318C0E054FD4D818182FB882780F90895E82F3B
S11318D0EF70F0E0EE0FFF1F282F332727FD309520
S11318E02227330F221F3327E20FF31FEE0FFF1FB0
S11318F0EE0FFF1FEE0FFF1FE054FD4D918192FF8D
S11319000EC091819B7F918320DDFC01808180FF4B
S113191006C08E7F80830780F085E02D199581E0D5
S113192008957F928F929F92AF92BF92CF92DF924F
S1131930EF92FF920F931F93CF93DF93982E862EEF
S11319405A01690102DD7C01792C771C7724771C0C
S1131950C92DCF70D0E0CC0FDD1FC70DD11DCC0F2A
S1131960DD1FCC0FDD1FCC0FDD1FC054DD4D898181
S1131970807C09F44CC08981807C803C19F0898189
S113198082FD47C08FB7F894F701908190FF03C0A0
S11319908FBF712C3FC0F7019081916090838FBFFE
S11319A0F701A182B282C382D48215821682078390
S11319B01087811006C091E0C114D10419F090E0A1
S11319C001C091E0F701808190FB81F98B7F8083D6
S11319D0772019F01E821F8215C08981807C803C8B
S11319E069F4CE018DDCBC01C6010E940F15892B60
S11319F029F0F70180818E7F80830CC01A821B82BC
S1131A001E821F82892D2BDD7724739403C0712CD1
S1131A1001C0712C872DDF91CF911F910F91FF9001
S1131A20EF90DF90CF90BF90AF909F908F907F907A
S1131A300895FF920F931F93CF93DF93182FF82EDF
S1131A40FF1CFF24FF1CC82FCF70D0E0CC0FDD1F7C
S1131A50CF0DD11DCC0FDD1FCC0FDD1FCC0FDD1F33
S1131A60C054DD4D72DCDC01FE0102E005938C9173
S1131A7080FF12C08E7F8C931796ED91FC9118977E
S1131A80309751F0FF2019F06E817F8102C06A8186
S1131A907B81412F81E01995DF91CF911F910F91A7
S1131AA0FF900895CF93C82FC4DFEC2FEF70F0E0C0
S1131AB0EE0FFF1F8C2F992787FD90958827990F8C
S1131AC0881F9927E80FF91FEE0FFF1FEE0FFF1F66
S1131AD0EE0FFF1FE054FD4D1182CF9108950F9337
S1131AE0E82FEF70F0E0EE0FFF1F282F332727FDBC
S1131AF030952227330F221F3327E20FF31FEE0FF7
S1131B00FF1FEE0FFF1FEE0FFF1FE054FD4D9181ED
S1131B109460918301E006938CDF81E00F91089536
S1131B201F920F920FB60F92112408B60F9218BE8F
S1131B3009B60F9219BE0BB60F921BBE0F932F93CB
S1131B403F934F935F936F937F938F939F93AF9341
S1131B50BF93EF93FF938091CB04882334F480E800
S1131B608093CA040E949E0588C08091CB0482FFA2
S1131B7020C084E08093CA048091C82286FF7DC07F
S1131B808091CC0481FD79C0FBDB811176C080910A
S1131B90AB22813011F430DB70C0843009F06DC0A9
S1131BA0E9ECF2E204E00593E1ECF2E204E00593EF
S1131BB064C08091CB0481FF5BC082E08093CA043F
S1131BC08091C02286FF59C08091CC0481FD55C00C
S1131BD0D7DB811152C08091AB22823041F484E082
S1131BE08093AB22E0ECF2E202E0069346C083303D
S1131BF009F043C0E9ECF2E204E00593E1ECF2E21F
S1131C0004E005933AC080E18093CA0481E011DFC7
S1131C1081E80FDF0E9477051092C304E1ECF2E241
S1131C20108296E09093C02283E48083E9ECF2E290
S1131C3010829093C822808387E692E28093C42224
S1131C409093C522A0DA19C08091CB0486FF06C008
S1131C5080E48093CA0480E077DA0FC08091CB04DB
S1131C6085FF0BC080E28093CA0481E06DDA05C071
S1131C708091CB0484FFE8CFC6CFFF91EF91BF9151
S1131C80AF919F918F917F916F915F914F913F9110
S1131C902F910F910F900BBE0F9009BE0F9008BEAD
S1131CA00F900FBE0F901F9018951F920F920FB6B2
S1131CB00F92112408B60F9218BE09B60F9219BEDE
S1131CC00AB60F921ABE0BB60F921BBE0F931F9348
S1131CD02F933F934F935F936F937F938F939F9330
S1131CE0AF93BF93CF93DF93EF93FF938091CC0493
S1131CF081FD03C045DB8111B8C082E08093CC0430
S1131D008091C5048195880FE0ECF2E2E81BF109AB
S1131D1020813181205C324236952795369527956E
S1131D2036952795822F869520FF02C090E801C042
S1131D3090E0890FE82FEF70F0E0EE0FFF1F282FDF
S1131D40332727FD30952227330F221F3327E20F35
S1131D50F31FEE0FFF1FEE0FFF1FEE0FFF1FE054E8
S1131D60FD4D908195FF81C000E20693811178C0FA
S1131D708091AB22843019F44DDA05DA76C0C09133
S1131D80C222D091C3228091192390911A230091E9
S1131D90A7221091A82298012C0F3D1F82179307A8
S1131DA018F4EC01C01BD10B8091172390911823D8
S1131DB0AE0167E672E2800F911F94D70C0F1D1FCE
S1131DC00093A7221093A822C034D10569F480910E
S1131DD0A9229091AA22800F911F2091152330915E
S1131DE016238217930788F00093192310931A235C
S1131DF0E0911D23F0911E23309729F0199581114C
S1131E0002C0ECD932C0F8D930C080911923909126
S1131E101A2308171907F9F4E0911D23F0911E23E2
S1131E20309711F4DBD921C01995811102C0D6D99C
S1131E301CC02091A9223091AA228091A7229091BE
S1131E40A822820F931F8093A9229093AA22109212
S1131E50A7221092A822E0ECF2E202E0069305C069
S1131E60803811F4DFD901C0FADAFF91EF91DF91E4
S1131E70CF91BF91AF919F918F917F916F915F911E
S1131E804F913F912F911F910F910F900BBE0F9087
S1131E900ABE0F9009BE0F9008BE0F900FBE0F90A0
S1131EA01F9018951F920F920FB60F92112408B627
S1131EB00F9218BE09B60F9219BE0BB60F921BBE35
S1131EC02F933F934F935F936F937F938F939F933E
S1131ED0AF93BF93CF93EF93FF930E943001E0EA57
S1131EE0FAE08181887121F00E94F5020E9432019A
S1131EF0C091A00A0E944104811105C00E94FB0206
S1131F000E94330104C08C2F90E00E9489040E9437
S1131F103101FF91EF91CF91BF91AF919F918F913B
S1131F207F916F915F914F913F912F910F900BBED5
S1131F300F9009BE0F9008BE0F900FBE0F901F9018
S1131F4018951F920F920FB60F92112408B60F9294
S1131F5018BE09B60F9219BE0BB60F921BBE2F9373
S1131F603F934F935F936F937F938F939F93AF931D
S1131F70BF93EF93FF930E94C503882339F00E9417
S1131F802E010E9411048093A00A06C080E3E0EAB7
S1131F90FAE083830E942F01FF91EF91BF91AF91EB
S1131FA09F918F917F916F915F914F913F912F916D
S1131FB00F900BBE0F9009BE0F9008BE0F900FBE7E
S1131FC00F901F901895CF93DF9343E050E060E8A3
S1131FD080E496E08BD3C0E4D6E080E88E8343E0CF
S1131FE050E060E280E496E081D380E28E8343E0B7
S1131FF050E062E080E496E079D382E08E8343E0AF
S113200050E061E080E496E071D381E08D83DF915C
S1132010CF91089587E0E0EAF0E08283F9D210924C
S1132020012310920223109203231092042310928E
S1132030052381E0809306236DD87894109223239E
S11320401092242310922123109222230895CF92D8
S1132050DF92EF92FF920F931F936B017C01DC01DF
S1132060CB01B695A79597958795DC019927882785
S1132070B701A6014170552766277727032E3FE055
S1132080440F551F661F771F3A95D1F7302D8A01EB
S11320909B01080F191F2A1F3B1FC901B8010BD848
S11320A00B2EB1E1F694E794D794C794BA95D1F77F
S11320B0B02DC0922323D09224231F910F91FF901F
S11320C0EF90DF90CF9008954091232350912423E3
S11320D060E070E0BA01552744272091092330912C
S11320E00A23420F531F611D711DDC01ED91FC9108
S11320F0309709F18081811116C081819281A38179
S1132100B48184179507A607B70768F017C08081C4
S1132110811109C081819281A381B48184179507BB
S1132120A607B70770F40184F285E02D309779F79C
S113213080E090E0089580E090E008958E2F9F2F36
S113214008958E2F9F2F0895CF93DF9381E293E21A
S1132150BBDFEC01009759F08D819E810E948508B8
S113216069817A818B819C810E946D0804C080E022
S113217090E00E948508C0931F23D0932023DF9111
S1132180CF910895CF92DF92EF92FF92E0912123B5
S1132190F0912223309799F1C0902323D0902423E7
S11321A0E12CF12C7601DD24CC248091072390913D
S11321B00823C80ED91EE11CF11C418152816381A0
S11321C07481C416D506E606F706C8F081859285A3
S11321D0009779F08093212390932223CF01F3D4A5
S11321E0E0912123F091222317821086309729F75A
S11321F006C0CF01E8D41092212310922223FF902D
S1132200EF90DF90CF900895CF92DF92EF92FF92FC
S11322100F931F93CF93DF936B017C018A01B2DF8D
S11322208BE090E038D4DC011196CD92DD92ED92F2
S1132230FC92149715960D931C9316971C92C091BB
S11322402123D09122232097F1F48093212390938A
S1132250222319961D921C921A9717961D921C926E
S1132260189780931F2390932023C8010E94850808
S1132270E0912123F09122236181728183819481F1
S11322800E946D0842C049815A816B817C81C416C9
S1132290D506E606F70658F58F83988717961D929C
S11322A01C9218971996CD93DC931A978093212347
S11322B0909322232AC04181528163817481C41680
S11322C0D506E606F70610F0EF0111C01996ED9356
S11322D0FC931A978781908517968D939C931897F2
S11322E0C781D085A987BA87A783B0870EC0E9853F
S11322F0FA85309701F7A987BA871796CD93DC93AF
S1132300189719961D921C921A97DF91CF911F91DD
S11323100F91FF90EF90DF90CF9008951F920F924E
S11323200FB60F92112408B60F9218BE0BB60F9277
S11323301BBE8F939F93EF93FF93E7E0F3E28081BB
S11323409181019680839183892B49F48091232381
S11323509091242301968093232390932423FF9127
S1132360EF919F918F910F900BBE0F9008BE0F902D
S11323700FBE0F901F9018951F920F920FB60F92D9
S1132380112408B60F9218BE09B60F9219BE0AB6E8
S11323900F921ABE0BB60F921BBECF92DF92EF9232
S11323A0FF920F931F932F933F934F935F936F93DA
S11323B07F938F939F93AF93BF93CF93DF93EF93C9
S11323C0FF9300912323109124238091072390915C
S11323D00823A0E0B0E020E030E0980111270027B6
S11323E0082B192B2A2B3B2B000F111F221F331FE5
S11323F0000F111F221F331FE0E0F4E040855185D8
S11324004427550F441F552760E070E0042B152B1B
S1132410262B372B4091092350910A2360E070E06A
S1132420BA0155274427C0900B23D0900C23E12CEC
S1132430F12C4C295D296E297F2940175107620729
S1132440730708F04AC0E0911F23F09120233097CE
S113245009F443C02081211140C021E0E0E0F4E010
S11324602283E0910D23F0910E233097B1F1C0E067
S1132470D4E0688579859C0111270027CB01A0E071
S1132480B0E0BC01CD01602B712B822B932B00910A
S1132490092310910A2320E030E098011127002736
S11324A0C0900B23D0900C23E12CF12C0C291D2976
S11324B02E293F29061717072807390730F0C901C5
S11324C0B8016F5F7F4F8F4F9F4F1995E0911F2386
S11324D0F091202381E0808337DEFF91EF91DF913B
S11324E0CF91BF91AF919F918F917F916F915F91A8
S11324F04F913F912F911F910F91FF90EF90DF909B
S1132500CF900F900BBE0F900ABE0F9009BE0F9094
S113251008BE0F900FBE0F901F9018950F931F9336
S1132520CF93DF931F92CDB7DEB7082F11E0198345
S1132530BE016F5F7F4F80E090E04BD1E0E0F6E0BA
S1132540168303B9BE016F5F7F4F80E090E057D1DF
S11325500F90DF91CF911F910F910895CF92DF9249
S1132560EF92FF920F931F93CF93DF931F92CDB7F8
S1132570DEB784E0E0E0F6E08683858381E089834A
S113258080E090E0DBD0C12CD12C760100E01BE18F
S113259027EB30E040E0BE016F5F7F4F80E090E0CA
S11325A0F9D0069A88EABADF8FE1B8DF83EDB6DFA7
S11325B080E0B4DF80E4B2DF81EAB0DF88ECAEDF34
S11325C08AEDACDF82E0AADF81E8A8DF8FE8A6DF2E
S11325D084EAA4DF86EAA2DF85EDA0DF80E89EDF3F
S11325E08DE89CDF84E19ADF8BED98DF80E496DF51
S11325F089ED94DF81EF92DF8FEA90DF0F90DF9116
S1132600CF911F910F91FF90EF90DF90CF9008959D
S1132610CF93DF9300D01F92CDB7DEB78FEF8093B7
S11326207000809371008093720080937300809394
S1132630740080937500809376006CE170E082E012
S113264007D18A836DE170E082E002D189838981B8
S11326509A81019621F480E493E289839A838981A3
S11326609A818B839C83E0E6F0E082838C81838370
S113267082E0E0E5F0E082838FB7F894908198607F
S113268090838FBF818183FFFDCF8BE0E0E4F0E096
S113269083832496CDBFDEBFDF91CF9108959FB78A
S11326A0F894E82FF0E0E059FF4F609580816823AB
S11326B060839FBF0895863011F468E101C060E033
S11326C0E0E5F0E0818181FD09C08FB7F894908145
S11326D0926090838FBF818181FFFDCF636084E42A
S11326E090E0B0D060E480E0DACF0895CF93DF9338
S11326F0FC01709620E030E0C62FD0E0DE01022E0F
S113270002C0B595A7950A94E2F7A0FD50832F5F08
S11327103F4F31962830310589F740FF0AC041FF09
S113272003C0FC01658302C0FC016683FC01618374
S113273002C0FC016283DF91CF9108950F931F9330
S1132740CF93DF93EC018C01C03C88E0D80721F4DF
S113275068E083E0A4DF10C0C03C89E0D80721F41E
S113276068E084E09CDF0EC0C03C8AE0D80721F416
S113277068E085E094DF06C0003C1B4019F468E083
S113278086E08DDF888180618883DF91CF911F91FE
S11327900F910895FF920F931F93CF93DF93EC0152
S11327A0F42EB901A80100E814E82EE130E05AD073
S11327B088234CF088819F2D990F990F9C70837FFB
S11327C0F92EF82AF882DF91CF911F910F91FF9093
S11327D00895FB018081E82FE695E695E69540E2B1
S11327E0E49FF0011124FA5F877021E030E0A90131
S11327F002C0440F551F8A95E2F746830895FB01F2
S11328008081E82FE695E695E69540E2E49FF001A5
S11328101124FA5F877021E030E0A90102C0440F5F
S1132820551F8A95E2F74583089543E050E068E038
S113283080EC97E05BDF40E058E164E080EC97E0F7
S113284055CF08951BBEFC0128ED24BF6083089575
S11328504091CA01E62FF72F8093CA0184914093D7
S1132860CA010895CF92DF92EF92FF920F931F93C4
S1132870CF93DF93EC016A017B01DB01CA0101976D
S1132880A109B109BC01CD01600F711F821F931F03
S1132890A7019601D8D02138310541055105F8F436
S11328A0213460F4213260F4213160F4293060F481
S11328B0253060F4233060F090E00BC093E009C051
S11328C092E007C092E805C091E003C091E801C01E
S11328D090E888818C77892B888381E001C08FEF11
S11328E0DF91CF911F910F91FF90EF90DF90CF90E8
S11328F0089588E0E0ECF7E086838AE694E0A1E0BE
S1132900B0E00197A109B1090097A105B105C9F784
S113291088E0E0ECF7E0858308952AE030E0E0EC1D
S1132920F7E048E0808583FD02C0458301C046830B
S113293080E090E001968A3151E49507D9F721505F
S113294031092115310571F7089525E030E0E0ECF7
S1132950F7E048E0808583FD02C0458301C04683DB
S113296080E090E00196803553EC9507D9F721502B
S113297031092115310571F788E0E0ECF7E0858332
S1132980089553DFEBDD87E0E0EAF0E082831BDBB0
S113299041DB0E942C010E942D010E94750565EC0B
S11329A072E685E596E553DB49E754E167EC72E6A8
S11329B085E596E529DC4DE854E169EC72E685E5A8
S11329C096E522DC45EA54E16AEC72E685E596E593
S11329D01BDCC1E0D3E282E093E2A8E4B0E0F89427
S11329E02881211107C0FC012F5F31913323E1F3CA
S11329F0211102C07894F3CF3C91E22FF0E0EB5F19
S1132A00FF4D232F217F3081232B2C932C91216088
S1132A102C93789488952C912E7F2C93E0CFAA1B2D
S1132A20BB1B51E107C0AA1FBB1FA617B70710F0B5
S1132A30A61BB70B881F991F5A95A9F780959095E7
S1132A40BC01CD010895A1E21A2EAA1BBB1BFD01F6
S1132A500DC0AA1FBB1FEE1FFF1FA217B307E40779
S1132A60F50720F0A21BB30BE40BF50B661F771FD1
S1132A70881F991F1A9469F76095709580959095B1
S1132A809B01AC01BD01CF010895EE0FFF1F05901E
S1132A90F491E02D1994CF93DF938230910510F4D3
S1132AA082E090E0E0912723F091282320E030E0B9
S1132AB0A0E0B0E0309739F14081518148175907BF
S1132AC0B8F04817590771F482819381109729F05F
S1132AD012968D939C9313972CC0809327239093E5
S1132AE0282327C02115310531F04217530718F068
S1132AF0A901DB0101C0EF019A01BD01DF010280E0
S1132B00F381E02DD7CF21153105F9F0281B390BBE
S1132B102430310580F48A819B816115710521F08F
S1132B20FB018283938304C08093272390932823FB
S1132B30FE01329644C0FE01E20FF31F819391938C
S1132B4022503109288339833AC0209125233091BA
S1132B502623232B41F4209102203091032020933B
S1132B602523309326232091002030910120211524
S1132B70310541F42DB73EB7409104205091052012
S1132B80241B350BE0912523F0912623E217F3074C
S1132B90A0F42E1B3F0B2817390778F0AC014E5FC9
S1132BA05F4F2417350748F04E0F5F1F40932523CE
S1132BB0509326238193919302C0E0E0F0E0CF018B
S1132BC0DF91CF910895CF93DF93009709F487C0E5
S1132BD0FC01329712821382C0912723D0912823BB
S1132BE0209781F420813181280F391F809125237A
S1132BF0909126238217930779F5E0932523F09388
S1132C0026236DC0DE0120E030E0AE17BF0750F48C
S1132C1012964D915C9113979D014115510509F14F
S1132C20DA01F3CFA283B38340815181840F951FCE
S1132C308A179B0771F48D919C911197840F951FAE
S1132C4002968083918312968D919C91139782832F
S1132C5093832115310529F4E0932723F093282346
S1132C603EC0D9011296ED93FC9313974D915D915B
S1132C70A40FB51FEA17FB0779F480819181840FB3
S1132C80951F0296D9018D939C931197828193810C
S1132C9012968D939C931397E0E0F0E08A819B81D8
S1132CA0009719F0FE01EC01F9CFCE0102962881BC
S1132CB03981820F931F20912523309126232817D1
S1132CC0390769F4309729F41092272310922823A6
S1132CD002C012821382C0932523D0932623DF914E
S1132CE0CF910895FB01DC0102C001900D92415087
S10D2CF05040D8F70895F894FFCF80
S1132CFA000029232000000E060C0400620372015E
S1132D0A7C017E01940234016C0180017E01000081
S1132D1A7220262000002E202A2016200C200902C8
S1132D2A4300020100C0320904000001020201004A
S1132D3A05240010010424020205240600010524C6
S1132D4A0103010705820340001009040100020A75
S1132D5A0000000705810240000007050202400046
S1132D6A00001201000202000040EB0304240001E7
S10B2D7A000000010403090438
S9030000FC
