S00F00004A4C525F4C45442E73726563F9
S1130000FDC000001FC100001DC100001BC1000095
S113001019C1000017C1000015C1000013C1000080
S113002011C100000FC10000FCC2000028C3000081
S113003009C1000007C1000005C1000003C10000A0
S113004001C10000FFC00000FDC00000FBC00000B3
S1130050F9C00000F7C00000F5C00000F3C00000C4
S1130060F1C00000EFC00000EDC00000EBC00000D4
S1130070E9C00000E7C00000E5C00000E3C00000E4
S1130080E1C00000DFC00000DDC00000DBC00000F4
S1130090D9C00000D7C00000D5C00000D3C0000004
S11300A0D1C00000CFC00000CDC00000CBC0000014
S11300B0C9C00000C7C00000C5C00000C3C0000024
S11300C0C1C00000BFC00000BDC00000BBC0000034
S11300D0B9C00000B7C00000B5C00000B3C0000044
S11300E0B1C00000AFC00000ADC00000ABC0000054
S11300F0A9C00000A7C00000A5C00000A3C0000064
S1130100A1C000009FC000009DC000009BC0000073
S113011099C0000097C0000095C0000093C0000083
S113012091C000008FC000008DC000008BC0000093
S113013089C0000087C0000085C0000083C00000A3
S113014081C000007FC000007DC000007BC00000B3
S113015079C0000077C0000075C0000073C00000C3
S113016071C000006FC000006DC000006BC00000D3
S113017069C0000067C0000065C0000063C00000E3
S113018061C000005FC000005DC000005BC00000F3
S113019059C0000057C0000055C0000053C0000003
S11301A051C000004FC000004DC000004BC0000013
S11301B049C0000047C0000045C0000043C0000023
S11301C041C000003FC000003DC000003BC0000033
S11301D039C0000037C0000035C0000033C0000043
S11301E031C000002FC000002DC000002BC0000053
S11301F029C0000027C0000025C0000011241FBE34
S1130200CFEFCDBFDFE3DEBF00E00CBF18BE19BEE9
S11302101ABE1BBE10E2A0E0B0E2E4E0FFE000E0A2
S11302200BBF02C007900D92AC30B107D9F71BBECB
S113023020E2ACE0B0E201C01D92A432B207E1F7C3
S1130240D2D45EC6DDCE10920004E0E0F4E0218159
S113025020FDFDCFE0E0F4E06087718780931220F9
S11302609093132081E080830895E0E0F4E021E09E
S11302702283648775876093162070931720809378
S1130280142090931520818180FDFDCFE0E0F4E0FF
S113029082E0838385E0828308958093182090937D
S11302A01920089564E080E057D3E0E0F4E08FEF94
S11302B09FEF82879387108611868FB7F894EFE0BB
S11302C0F0E290819F5F90838FBFE0E0F4E081E0F3
S11302D0828380830895CF93DF9343E050E060E806
S11302E080E496E045D3C0E4D6E080E88E8343E022
S11302F050E060E280E496E03BD380E28E8343E00A
S113030050E062E080E496E033D382E08E8343E001
S113031050E061E080E496E02BD381E08D83DF91AF
S1130320CF91089587E0E0EAF0E08283F4D210925E
S11303300C2010920D2010920E2010920F2010927B
S1130340102081E080931120ADDF789410921E205C
S113035010921F2010921C2010921D200895CF92FD
S1130360DF92EF92FF920F931F936B017C01DC01EC
S1130370CB01B695A79597958795DC019927882792
S1130380B701A6014170552766277727032E3FE062
S1130390440F551F661F771F3A95D1F7302D8A01F8
S11303A09B01080F191F2A1F3B1FC901B8014BDF0E
S11303B00B2EB1E1F694E794D794C794BA95D1F78C
S11303C0B02DC0921E20D0921F201F910F91FF903C
S11303D0EF90DF90CF90089540911E2050911F2000
S11303E060E070E0BA015527442720911420309131
S11303F01520420F531F611D711DDC01ED91FC910D
S1130400309709F18081811116C081819281A38185
S1130410B48184179507A607B70768F017C08081D1
S1130420811109C081819281A381B48184179507C8
S1130430A607B70770F40184F285E02D309779F7A9
S113044080E090E0089580E090E008958E2F9F2F43
S113045008958E2F9F2F0895CF93DF938CE190E220
S1130460BBDFEC01009749F08D819E8116DF698125
S11304707A818B819C81F9DE03C080E090E00DDFFE
S1130480C0931A20D0931B20DF91CF910895CF926F
S1130490DF92EF92FF92E0911C20F0911D203097A3
S11304A099F1C0901E20D0901F20E12CF12C7601F0
S11304B0DD24CC248091122090911320C80ED91EE3
S11304C0E11CF11C4181528163817481C416D506FB
S11304D0E606F706C8F081859285009779F0809347
S11304E01C2090931D20CF017CD4E0911C20F0911E
S11304F01D2017821086309729F706C0CF0171D4CA
S113050010921C2010921D20FF90EF90DF90CF904E
S11305100895CF92DF92EF92FF920F931F93CF93A0
S1130520DF936B017C018A01B2DF8BE090E0C1D3E1
S1130530DC011196CD92DD92ED92FC921497159602
S11305400D931C9316971C92C0911C20D0911D20D2
S11305502097E1F480931C2090931D2019961D92FE
S11305601C921A9717961D921C92189780931A2022
S113057090931B20C80191DEE0911C20F0911D2076
S1130580618172818381948170DE42C049815A8184
S11305906B817C81C416D506E606F70658F58F8371
S11305A0988717961D921C9218971996CD93DC93F1
S11305B01A9780931C2090931D202AC04181528158
S11305C063817481C416D506E606F70610F0EF01C0
S11305D011C01996ED93FC931A978781908517960D
S11305E08D939C931897C781D085A987BA87A783D1
S11305F0B0870EC0E985FA85309701F7A987BA87D5
S11306001796CD93DC93189719961D921C921A97FE
S1130610DF91CF911F910F91FF90EF90DF90CF90DA
S113062008951F920F920FB60F92112408B60F92DD
S113063018BE0BB60F921BBE8F939F93EF93FF933D
S1130640E2E1F0E280819181019680839183892B9C
S113065049F480911E2090911F20019680931E20C2
S113066090931F20FF91EF919F918F910F900BBE5C
S11306700F9008BE0F900FBE0F901F9018951F92F9
S11306800F920FB60F92112408B60F9218BE09B636
S11306900F9219BE0AB60F921ABE0BB60F921BBE6A
S11306A0CF92DF92EF92FF920F931F932F933F937A
S11306B04F935F936F937F938F939F93AF93BF9366
S11306C0CF93DF93EF93FF9300911E2010911F208F
S11306D08091122090911320A0E0B0E020E030E05F
S11306E0980111270027082B192B2A2B3B2B000FCD
S11306F0111F221F331F000F111F221F331FE0E0A1
S1130700F4E0408551854427550F441F552760E088
S113071070E0042B152B262B372B4091142050917D
S1130720152060E070E0BA0155274427C0901620D8
S1130730D0901720E12CF12C4C295D296E297F29BA
S1130740401751076207730708F04AC0E0911A2066
S1130750F0911B20309709F443C02081211140C03F
S113076021E0E0E0F4E02283E0911820F0911920E8
S11307703097B1F1C0E0D4E0688579859C011127F8
S11307800027CB01A0E0B0E0BC01CD01602B712BB0
S1130790822B932B009114201091152020E030E03F
S11307A0980111270027C0901620D0901720E12C23
S11307B0F12C0C291D292E293F2906171707280774
S11307C0390730F0C901B8016F5F7F4F8F4F9F4FDA
S11307D01995E0911A20F0911B2081E080833CDE82
S11307E0FF91EF91DF91CF91BF91AF919F918F9145
S11307F07F916F915F914F913F912F911F910F9135
S1130800FF90EF90DF90CF900F900BBE0F900ABE39
S11308100F9009BE0F9008BE0F900FBE0F901F904F
S113082018950F931F93CF93DF931F92CDB7DEB725
S1130830082F11E01983BE016F5F7F4F80E090E0C5
S11308400AD1E0E0F6E0168303B9BE016F5F7F4F83
S113085080E090E016D10F90DF91CF911F910F911E
S11308600895CF92DF92EF92FF920F931F93CF934D
S1130870DF931F92CDB7DEB784E0E0E0F6E0868335
S1130880858381E0898380E090E09AD0C12CD12CCB
S1130890760100E01BE127EB30E040E0BE016F5F32
S11308A07F4F80E090E0B8D0069A88EABADF8FE103
S11308B0B8DF83EDB6DF80E0B4DF80E4B2DF81EA45
S11308C0B0DF88ECAEDF8AEDACDF82E0AADF81E83E
S11308D0A8DF8FE8A6DF84EAA4DF86EAA2DF85ED3D
S11308E0A0DF80E89EDF8DE89CDF84E19ADF8BED5A
S11308F098DF80E496DF89ED94DF81EF92DF8FEA61
S113090090DF0F90DF91CF911F910F91FF90EF90A7
S1130910DF90CF9008958FEF8093700080937100E3
S113092080937200809373008093740080937500A9
S11309308093760082E0E0E5F0E082838FB7F8945C
S11309409081986090838FBF818183FFFDCF8BE07E
S1130950E0E4F0E0838308959FB7F894E82FF0E093
S1130960E059FF4F60958081682360839FBF08959D
S1130970CF93DF93FC01709620E030E0C62FD0E0E7
S1130980DE01022E02C0B595A7950A94E2F7A0FDF8
S113099050832F5F3F4F31962830310589F740FF50
S11309A00AC041FF03C0FC01658302C0FC016683E9
S11309B0FC01618302C0FC016283DF91CF91089541
S11309C00F931F93CF93DF93EC018C01C03C88E01D
S11309D0D80721F468E083E0BFDF10C0C03C89E0A1
S11309E0D80721F468E084E0B7DF0EC0C03C8AE099
S11309F0D80721F468E085E0AFDF06C0003C1B4067
S1130A0019F468E086E0A8DF888180618883DF913B
S1130A10CF911F910F910895FF920F931F93CF933E
S1130A20DF93EC01F42EB901A80100E814E82EE1EB
S1130A3030E04AD088234CF088819F2D990F990F7C
S1130A409C70837FF92EF82AF882DF91CF911F9151
S1130A500F91FF900895FB018081E82FE695E695BC
S1130A60E69540E2E49FF0011124FA5F877021E0EB
S1130A7030E0A90102C0440F551F8A95E2F746836E
S1130A800895FB018081E82FE695E695E69540E21E
S1130A90E49FF0011124FA5F877021E030E0A9019E
S1130AA002C0440F551F8A95E2F74583089543E039
S1130AB050E068E080EC97E05BDF40E058E164E000
S1130AC080EC97E055CF0895CF92DF92EF92FF929A
S1130AD00F931F93CF93DF93EC016A017B01DB013A
S1130AE0CA010197A109B109BC01CD01600F711FB1
S1130AF0821F931FA7019601BAD021383105410501
S1130B005105F8F4213460F4213260F4213160F4A9
S1130B10293060F4253060F4233060F090E00BC09D
S1130B2093E009C092E007C092E805C091E003C0D9
S1130B3091E801C090E888818C77892B888381E0D3
S1130B4001C08FEFDF91CF911F910F91FF90EF9034
S1130B50DF90CF90089588E0E0ECF7E086838AE6A2
S1130B6094E0A1E0B0E00197A109B1090097A105C3
S1130B70B105C9F788E0E0ECF7E0858308952AE041
S1130B8030E0E0ECF7E048E0808583FD02C0458377
S1130B9001C0468380E090E001968A3151E49507D4
S1130BA0D9F7215031092115310571F7089525E050
S1130BB030E0E0ECF7E048E0808583FD02C0458347
S1130BC001C0468380E090E00196803553EC9507A0
S1130BD0D9F7215031092115310571F788E0E0EC8E
S1130BE0F7E08583089563DF3CDE75DB9BDB65EC12
S1130BF072E685E596E5B3DB4BEA55E067EC72E611
S1130C0085E596E586DC4FEB55E069EC72E685E513
S1130C1096E57FDC47ED55E06AEC72E685E596E5FE
S1130C2078DCCCE0D0E28DE090E2A8E4B0E0F89487
S1130C302881211107C0FC012F5F31913323E1F397
S1130C40211102C07894F3CF3C91E22FF0E0EB5FE6
S1130C50FF4D232F217F3081232B2C932C91216056
S1130C602C93789488952C912E7F2C93E0CFA1E23D
S1130C701A2EAA1BBB1BFD010DC0AA1FBB1FEE1F12
S1130C80FF1FA217B307E407F50720F0A21BB30B5D
S1130C90E40BF50B661F771F881F991F1A9469F7D9
S1130CA060957095809590959B01AC01BD01CF0135
S1130CB00895CF93DF938230910510F482E090E0A1
S1130CC0E0912220F091232020E030E0A0E0B0E089
S1130CD0309739F14081518148175907B8F04817C6
S1130CE0590771F482819381109729F012968D939C
S1130CF09C9313972CC0809322209093232027C089
S1130D002115310531F04217530718F0A901DB0111
S1130D1001C0EF019A01BD01DF010280F381E02DE2
S1130D20D7CF21153105F9F0281B390B24303105B3
S1130D3080F48A819B816115710521F0FB01828316
S1130D40938304C08093222090932320FE01329643
S1130D5044C0FE01E20FF31F8193919322503109A5
S1130D60288339833AC02091202030912120232BDD
S1130D7041F42091022030910320209320203093CD
S1130D80212020910020309101202115310541F4CA
S1130D902DB73EB74091042050910520241B350BFC
S1130DA0E0912020F0912120E217F307A0F42E1BFC
S1130DB03F0B2817390778F0AC014E5F5F4F2417BB
S1130DC0350748F04E0F5F1F409320205093212099
S1130DD08193919302C0E0E0F0E0CF01DF91CF91E5
S1130DE00895CF93DF93009709F487C0FC013297ED
S1130DF012821382C0912220D0912320209781F463
S1130E0020813181280F391F809120209091212049
S1130E108217930779F5E0932020F09321206DC089
S1130E20DE0120E030E0AE17BF0750F412964D917A
S1130E305C9113979D014115510509F1DA01F3CF36
S1130E40A283B38340815181840F951F8A179B0726
S1130E5071F48D919C911197840F951F0296808354
S1130E60918312968D919C9113978283938321157C
S1130E70310529F4E0932220F09323203EC0D901C8
S1130E801296ED93FC9313974D915D91A40FB51FAA
S1130E90EA17FB0779F480819181840F951F0296EC
S1130EA0D9018D939C9311978281938112968D938E
S1130EB09C931397E0E0F0E08A819B81009719F0FE
S1130EC0FE01EC01F9CFCE01029628813981820F0F
S1130ED0931F20912020309121202817390769F48D
S1130EE0309729F4109222201092232002C01282FB
S1130EF01382C0932020D0932120DF91CF910895B5
S1070F00F894FFCF8F
S10F0F04000024202000000E060C040055
S9030000FC
